{"contracts/AgentPump.sol":{"AgentPump":{"abi":[{"inputs":[],"stateMutability":"nonpayable","type":"constructor"},{"inputs":[{"internalType":"address","name":"owner","type":"address"}],"name":"OwnableInvalidOwner","type":"error"},{"inputs":[{"internalType":"address","name":"account","type":"address"}],"name":"OwnableUnauthorizedAccount","type":"error"},{"inputs":[],"name":"ReentrancyGuardReentrantCall","type":"error"},{"anonymous":false,"inputs":[{"indexed":true,"internalType":"address","name":"wallet","type":"address"}],"name":"AgentDeactivated","type":"event"},{"anonymous":false,"inputs":[{"indexed":true,"internalType":"address","name":"wallet","type":"address"},{"indexed":false,"internalType":"string","name":"name","type":"string"},{"indexed":false,"internalType":"string","name":"avatar","type":"string"}],"name":"AgentRegistered","type":"event"},{"anonymous":false,"inputs":[{"indexed":true,"internalType":"address","name":"previousOwner","type":"address"},{"indexed":true,"internalType":"address","name":"newOwner","type":"address"}],"name":"OwnershipTransferred","type":"event"},{"anonymous":false,"inputs":[{"indexed":true,"internalType":"uint256","name":"tokenId","type":"uint256"},{"indexed":false,"internalType":"string","name":"name","type":"string"},{"indexed":false,"internalType":"string","name":"symbol","type":"string"},{"indexed":true,"internalType":"address","name":"creator","type":"address"},{"indexed":false,"internalType":"string","name":"metadata","type":"string"}],"name":"TokenCreated","type":"event"},{"anonymous":false,"inputs":[{"indexed":true,"internalType":"uint256","name":"tokenId","type":"uint256"},{"indexed":false,"internalType":"uint256","name":"finalMC","type":"uint256"}],"name":"TokenGraduated","type":"event"},{"anonymous":false,"inputs":[{"indexed":true,"internalType":"uint256","name":"tokenId","type":"uint256"},{"indexed":true,"internalType":"address","name":"agent","type":"address"},{"indexed":false,"internalType":"bool","name":"isBuy","type":"bool"},{"indexed":false,"internalType":"uint256","name":"amount","type":"uint256"},{"indexed":false,"internalType":"uint256","name":"price","type":"uint256"},{"indexed":false,"internalType":"uint256","name":"cost","type":"uint256"}],"name":"Trade","type":"event"},{"inputs":[],"name":"BASE_PRICE","outputs":[{"internalType":"uint256","name":"","type":"uint256"}],"stateMutability":"view","type":"function"},{"inputs":[],"name":"GRADUATION_MC","outputs":[{"internalType":"uint256","name":"","type":"uint256"}],"stateMutability":"view","type":"function"},{"inputs":[],"name":"INITIAL_SUPPLY","outputs":[{"internalType":"uint256","name":"","type":"uint256"}],"stateMutability":"view","type":"function"},{"inputs":[],"name":"PRECISION","outputs":[{"internalType":"uint256","name":"","type":"uint256"}],"stateMutability":"view","type":"function"},{"inputs":[],"name":"RESERVE_RATIO","outputs":[{"internalType":"uint256","name":"","type":"uint256"}],"stateMutability":"view","type":"function"},{"inputs":[{"internalType":"address","name":"wallet","type":"address"}],"name":"activateAgent","outputs":[],"stateMutability":"nonpayable","type":"function"},{"inputs":[],"name":"agentCount","outputs":[{"internalType":"uint256","name":"","type":"uint256"}],"stateMutability":"view","type":"function"},{"inputs":[{"internalType":"uint256","name":"","type":"uint256"}],"name":"agentList","outputs":[{"internalType":"address","name":"","type":"address"}],"stateMutability":"view","type":"function"},{"inputs":[{"internalType":"address","name":"","type":"address"}],"name":"agents","outputs":[{"internalType":"string","name":"name","type":"string"},{"internalType":"string","name":"avatar","type":"string"},{"internalType":"address","name":"wallet","type":"address"},{"internalType":"uint256","name":"totalTrades","type":"uint256"},{"internalType":"uint256","name":"totalVolume","type":"uint256"},{"internalType":"int256","name":"pnl","type":"int256"},{"internalType":"bool","name":"active","type":"bool"}],"stateMutability":"view","type":"function"},{"inputs":[{"internalType":"uint256","name":"","type":"uint256"},{"internalType":"address","name":"","type":"address"}],"name":"balances","outputs":[{"internalType":"uint256","name":"","type":"uint256"}],"stateMutability":"view","type":"function"},{"inputs":[{"internalType":"uint256","name":"tokenId","type":"uint256"},{"internalType":"uint256","name":"amount","type":"uint256"}],"name":"buy","outputs":[],"stateMutability":"payable","type":"function"},{"inputs":[{"internalType":"string","name":"name","type":"string"},{"internalType":"string","name":"symbol","type":"string"},{"internalType":"string","name":"metadata","type":"string"}],"name":"createToken","outputs":[{"internalType":"uint256","name":"tokenId","type":"uint256"}],"stateMutability":"nonpayable","type":"function"},{"inputs":[{"internalType":"address","name":"wallet","type":"address"}],"name":"deactivateAgent","outputs":[],"stateMutability":"nonpayable","type":"function"},{"inputs":[{"internalType":"uint256","name":"tokenId","type":"uint256"},{"internalType":"address","name":"agent","type":"address"}],"name":"getAgentBalance","outputs":[{"internalType":"uint256","name":"","type":"uint256"}],"stateMutability":"view","type":"function"},{"inputs":[{"internalType":"address","name":"wallet","type":"address"}],"name":"getAgentInfo","outputs":[{"internalType":"string","name":"name","type":"string"},{"internalType":"string","name":"avatar","type":"string"},{"internalType":"uint256","name":"totalTrades","type":"uint256"},{"internalType":"uint256","name":"totalVolume","type":"uint256"},{"internalType":"int256","name":"pnl","type":"int256"},{"internalType":"bool","name":"active","type":"bool"}],"stateMutability":"view","type":"function"},{"inputs":[],"name":"getAllAgents","outputs":[{"internalType":"address[]","name":"","type":"address[]"}],"stateMutability":"view","type":"function"},{"inputs":[{"internalType":"uint256","name":"tokenId","type":"uint256"},{"internalType":"uint256","name":"amount","type":"uint256"}],"name":"getBuyPrice","outputs":[{"internalType":"uint256","name":"cost","type":"uint256"}],"stateMutability":"view","type":"function"},{"inputs":[{"internalType":"uint256","name":"tokenId","type":"uint256"}],"name":"getMarketCap","outputs":[{"internalType":"uint256","name":"","type":"uint256"}],"stateMutability":"view","type":"function"},{"inputs":[{"internalType":"uint256","name":"tokenId","type":"uint256"}],"name":"getPrice","outputs":[{"internalType":"uint256","name":"","type":"uint256"}],"stateMutability":"view","type":"function"},{"inputs":[{"internalType":"uint256","name":"tokenId","type":"uint256"},{"internalType":"uint256","name":"amount","type":"uint256"}],"name":"getSellPrice","outputs":[{"internalType":"uint256","name":"revenue","type":"uint256"}],"stateMutability":"view","type":"function"},{"inputs":[{"internalType":"uint256","name":"tokenId","type":"uint256"}],"name":"getToken","outputs":[{"internalType":"string","name":"name","type":"string"},{"internalType":"string","name":"symbol","type":"string"},{"internalType":"string","name":"metadata","type":"string"},{"internalType":"address","name":"creator","type":"address"},{"internalType":"uint256","name":"createdAt","type":"uint256"},{"internalType":"uint256","name":"totalSupply","type":"uint256"},{"internalType":"uint256","name":"reserveBalance","type":"uint256"},{"internalType":"uint256","name":"price","type":"uint256"},{"internalType":"uint256","name":"marketCap","type":"uint256"},{"internalType":"bool","name":"graduated","type":"bool"}],"stateMutability":"view","type":"function"},{"inputs":[{"internalType":"address","name":"","type":"address"}],"name":"isAgent","outputs":[{"internalType":"bool","name":"","type":"bool"}],"stateMutability":"view","type":"function"},{"inputs":[],"name":"owner","outputs":[{"internalType":"address","name":"","type":"address"}],"stateMutability":"view","type":"function"},{"inputs":[{"internalType":"address","name":"wallet","type":"address"},{"internalType":"string","name":"name","type":"string"},{"internalType":"string","name":"avatar","type":"string"}],"name":"registerAgent","outputs":[],"stateMutability":"nonpayable","type":"function"},{"inputs":[],"name":"renounceOwnership","outputs":[],"stateMutability":"nonpayable","type":"function"},{"inputs":[{"internalType":"uint256","name":"tokenId","type":"uint256"},{"internalType":"uint256","name":"amount","type":"uint256"}],"name":"sell","outputs":[],"stateMutability":"nonpayable","type":"function"},{"inputs":[],"name":"tokenCount","outputs":[{"internalType":"uint256","name":"","type":"uint256"}],"stateMutability":"view","type":"function"},{"inputs":[{"internalType":"uint256","name":"","type":"uint256"}],"name":"tokens","outputs":[{"internalType":"string","name":"name","type":"string"},{"internalType":"string","name":"symbol","type":"string"},{"internalType":"string","name":"metadata","type":"string"},{"internalType":"address","name":"creator","type":"address"},{"internalType":"uint256","name":"createdAt","type":"uint256"},{"internalType":"uint256","name":"totalSupply","type":"uint256"},{"internalType":"uint256","name":"reserveBalance","type":"uint256"},{"internalType":"bool","name":"graduated","type":"bool"}],"stateMutability":"view","type":"function"},{"inputs":[{"internalType":"address","name":"newOwner","type":"address"}],"name":"transferOwnership","outputs":[],"stateMutability":"nonpayable","type":"function"},{"inputs":[],"name":"withdraw","outputs":[],"stateMutability":"nonpayable","type":"function"},{"stateMutability":"payable","type":"receive"}],"evm":{"bytecode":{"linkReferences":{},"object":"6080806040523461007e5733156100685760008054336001600160a01b03198216811783556040519290916001600160a01b0316907f8be0079c531659141344cd1fd0a4f28419497f9722a3daafe3b4186f6b6457e09080a360018055611f8990816100848239f35b631e4fbdf760e01b815260006004820152602490fd5b600080fdfe6080604052600436101561001b575b361561001957600080fd5b005b60003560e01c8063152052b01461183c5780631f3203311461159e5780631ffbb064146117fd578063283c9c31146117df5780632f4e9a69146117bb5780632f80c54f146117795780632ff2e9dc146117545780633ccfd60b1461170d5780634e81ba8e146116aa5780634f64b2be146115e6578063667ffae41461159e578063715018a6146115455780637216fe481461104b578063860e4ac614610f835780638da5cb5b14610f5a5780639477d85d14610f4157806394aed7d0146109515780639f181b5e14610933578063aaf5eb6814610910578063b0a0a9271461088b578063b7dc12841461086d578063c157253d14610854578063d6febde81461061f578063d79875eb146103f3578063e37dbfd9146103d5578063e4b50cb8146102ee578063e7572230146102c8578063f2fde38b1461023f578063f86325ed1461021e5763fd66091e0361000e5734610219576020366003190112610219576101eb6001600160a01b038061018f6118db565b16600052600460205260406000206101a6816119ef565b916101b3600183016119ef565b906002830154169160038101546004820154906101f960ff60066005860154950154169460405198899860e08a5260e08a0190611907565b9088820360208a0152611907565b9460408701526060860152608085015260a0840152151560c08301520390f35b600080fd5b34610219576000366003190112610219576020604051655af3107a40008152f35b34610219576020366003190112610219576102586118db565b610260611ad8565b6001600160a01b039081169081156102af57600054826001600160601b0360a01b821617600055167f8be0079c531659141344cd1fd0a4f28419497f9722a3daafe3b4186f6b6457e0600080a3005b604051631e4fbdf760e01b815260006004820152602490fd5b346102195760203660031901126102195760206102e6600435611c8b565b604051908152f35b346102195760203660031901126102195761038d60043580600052600260205260406000209060018060a01b0360038301541690600483015490600584015490600685015461034561033f83611c8b565b92611d08565b9260ff600788015416946103a961035b896119ef565b9861039b6103776002610370600185016119ef565b93016119ef565b916040519c8d9c8d610140908181520190611907565b8c810360208e015290611907565b908a820360408c0152611907565b966060890152608088015260a087015260c086015260e085015261010084015215156101208301520390f35b346102195760003660031901126102195760206040516207a1208152f35b346102195761040136611ac2565b90336000526020916005835261041e60ff60406000205416611bcb565b336000526004835261043a60ff60066040600020015416611c16565b610442611f30565b61044f6006548310611e6a565b816000526002835260406000209061046e60ff60078401541615611ead565b610479811515611eef565b8260005260038452604060002033600052845280604060002054106105e3576104a28184611dec565b9160068101908154908482106105a6576104cd9160058692016104c6868254611ddf565b9055611ddf565b90558260005260038452604060002033600052845260406000206104f2828254611ddf565b90553360005260048452600360406000200161050e8154611b4a565b90553360005260048452600460406000200161052b838254611d3a565b9055816000811561059d575b600080809381933390f1156105915761054f83611c8b565b906040519460008652850152604084015260608301527f4751c5d55b3f49e18b20719a1a2338b9654cb6cd4d71150f79e96fdf565e227d60803393a360018055005b6040513d6000823e3d90fd5b506108fc610537565b60405162461bcd60e51b8152600481018890526015602482015274496e73756666696369656e7420726573657276657360581b6044820152606490fd5b60405162461bcd60e51b8152600481018590526014602482015273496e73756666696369656e742062616c616e636560601b6044820152606490fd5b61062836611ac2565b90336000526020916005835261064560ff60406000205416611bcb565b336000526004835261066160ff60066040600020015416611c16565b610669611f30565b6106766006548310611e6a565b81600052600283526040600020906007820161069660ff82541615611ead565b6106a1821515611eef565b6106ab8285611d47565b9283341061081857806005600692016106c5858254611d3a565b9055016106d3848254611d3a565b90558360005260038552604060002033600052855260406000206106f8838254611d3a565b9055336000526004855260036040600020016107148154611b4a565b905533600052600485526004604060002001610731848254611d3a565b90556803bd913e6c1df4000061074685611d08565b10156107d4575b508134116107a1575b61075f83611c8b565b906040519460018652850152604084015260608301527f4751c5d55b3f49e18b20719a1a2338b9654cb6cd4d71150f79e96fdf565e227d60803393a360018055005b60008080806107b08634611ddf565b8181156107cb575b3390f1610756576040513d6000823e3d90fd5b506108fc6107b8565b805460ff19166001179055827fe35dd07099511d4cf4f6b2e3d4b6fa088180acf5ab1107223e9608456c7306bc8561080b83611d08565b604051908152a28461074d565b60405162461bcd60e51b8152600481018790526014602482015273125b9cdd59999a58da595b9d081c185e5b595b9d60621b6044820152606490fd5b346102195760206102e661086736611ac2565b90611d47565b34610219576000366003190112610219576020600754604051908152f35b34610219576020366003190112610219576108a46118db565b6108ac611ad8565b6001600160a01b03166000818152600560205260409020546108d09060ff16611b90565b806000526004602052600660406000200160ff1981541690557fa58c733780f5c1527d6106ff1e731cbf2e9ffc0eb11ad399ca33ea55f057ddf4600080a2005b34610219576000366003190112610219576020604051670de0b6b3a76400008152f35b34610219576000366003190112610219576020600654604051908152f35b34610219576060366003190112610219576004356001600160401b03811161021957610981903690600401611a95565b6024356001600160401b038111610219576109a0903690600401611a95565b91906044356001600160401b038111610219576109c1903690600401611a95565b9290923360005260056020526109de60ff60406000205416611bcb565b3360005260046020526109fb60ff60066040600020015416611c16565b60065494610a0886611b4a565b60065560405161010081018181106001600160401b03821117610d9a57604052610a3336858a611b04565b8152610a40368387611b04565b6020820152610a50368488611b04565b604082015233606082015242608082015269d3c21bcecceda100000060a08201526802b5e3af16b188000060c0820152600060e082015286600052600260205260406000209080518051906001600160401b038211610d9a578190610ab58554611994565b601f8111610ef1575b50602090601f8311600114610e8b57600092610e80575b50508160011b916000199060031b1c19161782555b60208101518051906001600160401b038211610d9a578190610b0f6001860154611994565b601f8111610e2d575b50602090601f8311600114610dbb57600092610db0575b50508160011b916000199060031b1c19161760018301555b60408101518051906001600160401b038211610d9a57610b6a6002850154611994565b601f8111610d53575b509160209a9593918a9795938c90601f8311600114610ca95793600760e07f41c18030e878821eb90f9ab62b1395f3c29303473a3ac6a3a3d26b9999fb39399b9c9585610c939a9996610c3b96610c839a600092610c9e575b50508160011b916000199060031b1c19161760028501555b6003840160018060a01b036060830151166001600160601b0360a01b8254161790556080810151600485015560a0810151600585015560c081015160068501550151151591019060ff801983541691151516179055565b8860005260038c526040600020336000528c5269152d02c7e14af6800000604060002055610c76604051978897606089526060890191611b6f565b918683038d880152611b6f565b9083820360408501523397611b6f565b0390a3604051908152f35b015190503880610bcc565b999493929190600284016000528d6000209a60005b601f1984168110610d39575060e0610c8396946001857f41c18030e878821eb90f9ab62b1395f3c29303473a3ac6a3a3d26b9999fb39399e9f610c939c9b9996600796610c3b99601f19811610610d20575b505050811b016002850155610be4565b015160001960f88460031b161c19169055388080610d10565b828201518d556001909c019b8e9b50918f01918f01610cbe565b600285016000526020600020601f840160051c810160208510610d93575b601f830160051c82018110610d87575050610b73565b60008155600101610d71565b5080610d71565b634e487b7160e01b600052604160045260246000fd5b015190508b80610b2f565b9250600185016000526020600020906000935b601f1984168510610e12576001945083601f19811610610df9575b505050811b016001830155610b47565b015160001960f88460031b161c191690558b8080610de9565b81810151835560209485019460019093019290910190610dce565b909150600185016000526020600020601f840160051c810160208510610e79575b90849392915b601f830160051c82018110610e6a575050610b18565b60008155859450600101610e54565b5080610e4e565b015190508b80610ad5565b6000868152602081209350601f198516905b818110610ed95750908460019594939210610ec0575b505050811b018255610aea565b015160001960f88460031b161c191690558b8080610eb3565b92936020600181928786015181550195019301610e9d565b909150846000526020600020601f840160051c810160208510610f3a575b90849392915b601f830160051c82018110610f2b575050610abe565b60008155859450600101610f15565b5080610f0f565b346102195760206102e6610f5436611ac2565b90611dec565b34610219576000366003190112610219576000546040516001600160a01b039091168152602090f35b3461021957600036600319011261021957604051806008548083526020809301809160086000527ff3f7a9fe364faab93b216da50a3214154f22a0a2b415b23a84c8169e8b636ee39060005b8682821061102e578686610fe5828803836119ce565b604051928392818401908285525180915260408401929160005b82811061100e57505050500390f35b83516001600160a01b031685528695509381019392810192600101610fff565b83546001600160a01b031685529093019260019283019201610fcf565b34610219576060366003190112610219576110646118db565b6024356001600160401b03811161021957611083903690600401611a95565b906044356001600160401b038111610219576110a3903690600401611a95565b9290936110ae611ad8565b6001600160a01b03811660009081526005602052604090205460ff16611500576001600160a01b038116156114ca5760405160e081018181106001600160401b03821117610d9a57604052611104368486611b04565b8152611111368688611b04565b602082015260018060a01b03821660408201526000606082015260006080820152600060a0820152600160c082015260018060a01b038216600052600460205260406000209080518051906001600160401b038211610d9a5781906111768554611994565b601f811161147a575b50602090601f831160011461140e57600092611403575b50508160011b916000199060031b1c19161782555b60208101518051906001600160401b038211610d9a576111ce6001850154611994565b601f81116113bc575b50602090601f831160011461134357928260069360c09361126a9796600092611338575b50508160011b916000199060031b1c19161760018501555b6002840160018060a01b036040830151166001600160601b0360a01b825416179055606081015160038501556080810151600485015560a081015160058501550151151591019060ff801983541691151516179055565b6001600160a01b0381166000908152600560205260409020805460ff191660011790556008549068010000000000000000821015610d9a577f37b3aaf4f807403887412a5994aa1832eface4a8c15501a3311bf21d3279ea3f946112d78360016113339501600855611947565b81546001600160a01b0385811660039390931b92831b921b191617905560075461130090611b4a565b60075561131a604051958695604087526040870191611b6f565b84810360208601526001600160a01b0390921696611b6f565b0390a2005b015190508c806111fb565b906001850160005260206000209160005b601f19851681106113a457508360c09361126a979693600193600697601f1981161061138b575b505050811b016001850155611213565b015160001960f88460031b161c191690558c808061137b565b91926020600181928685015181550194019201611354565b600185016000526020600020601f840160051c8101602085106113fc575b601f830160051c820181106113f05750506111d7565b600081556001016113da565b50806113da565b015190508980611196565b9250846000526020600020906000935b601f198416851061145f576001945083601f19811610611446575b505050811b0182556111ab565b015160001960f88460031b161c19169055898080611439565b8181015183556020948501946001909301929091019061141e565b909150846000526020600020601f840160051c8101602085106114c3575b90849392915b601f830160051c820181106114b457505061117f565b6000815585945060010161149e565b5080611498565b60405162461bcd60e51b815260206004820152600e60248201526d125b9d985b1a59081dd85b1b195d60921b6044820152606490fd5b60405162461bcd60e51b815260206004820152601860248201527f4167656e7420616c7265616479207265676973746572656400000000000000006044820152606490fd5b346102195760003660031901126102195761155e611ad8565b600080546001600160a01b0319811682556001600160a01b03167f8be0079c531659141344cd1fd0a4f28419497f9722a3daafe3b4186f6b6457e08280a3005b34610219576040366003190112610219576115b76118f1565b600435600052600360205260406000209060018060a01b03166000526020526020604060002054604051908152f35b3461021957602036600319011261021957600435600052600260205261166e6040600020611613816119ef565b90611620600182016119ef565b61162c600283016119ef565b9160018060a01b0360038201541692600482015461168a60058401549261167c60ff6007600688015497015416966040519a8b9a610100808d528c0190611907565b908a820360208c0152611907565b9088820360408a0152611907565b946060870152608086015260a085015260c0840152151560e08301520390f35b34610219576020366003190112610219576116c36118db565b6116cb611ad8565b6001600160a01b03166000818152600560205260409020546116ef9060ff16611b90565b6000908152600460205260409020600601805460ff19166001179055005b3461021957600036600319011261021957611726611ad8565b6000805481908190819047906001600160a01b031682821561174b575bf11561059157005b506108fc611743565b3461021957600036600319011261021957602060405169d3c21bcecceda10000008152f35b3461021957602036600319011261021957600435600854811015610219576117a2602091611947565b905460405160039290921b1c6001600160a01b03168152f35b346102195760003660031901126102195760206040516803bd913e6c1df400008152f35b346102195760203660031901126102195760206102e6600435611d08565b34610219576020366003190112610219576001600160a01b0361181e6118db565b166000526005602052602060ff604060002054166040519015158152f35b34610219576020366003190112610219576001600160a01b0361185d6118db565b1660005260046020526118b2604060002060038101546004820154600583015460ff600685015416916118c061189e6001611897886119ef565b97016119ef565b60405197889760c0895260c0890190611907565b908782036020890152611907565b93604086015260608501526080840152151560a08301520390f35b600435906001600160a01b038216820361021957565b602435906001600160a01b038216820361021957565b919082519283825260005b848110611933575050826000602080949584010152601f8019910116010190565b602081830181015184830182015201611912565b60085481101561197e5760086000527ff3f7a9fe364faab93b216da50a3214154f22a0a2b415b23a84c8169e8b636ee30190600090565b634e487b7160e01b600052603260045260246000fd5b90600182811c921680156119c4575b60208310146119ae57565b634e487b7160e01b600052602260045260246000fd5b91607f16916119a3565b90601f801991011681019081106001600160401b03821117610d9a57604052565b9060405191826000825492611a0384611994565b908184526001948581169081600014611a725750600114611a2f575b5050611a2d925003836119ce565b565b9093915060005260209081600020936000915b818310611a5a575050611a2d93508201013880611a1f565b85548884018501529485019487945091830191611a42565b915050611a2d94506020925060ff191682840152151560051b8201013880611a1f565b9181601f84011215610219578235916001600160401b038311610219576020838186019501011161021957565b6040906003190112610219576004359060243590565b6000546001600160a01b03163303611aec57565b60405163118cdaa760e01b8152336004820152602490fd5b9291926001600160401b038211610d9a5760405191611b2d601f8201601f1916602001846119ce565b829481845281830111610219578281602093846000960137010152565b6000198114611b595760010190565b634e487b7160e01b600052601160045260246000fd5b908060209392818452848401376000828201840152601f01601f1916010190565b15611b9757565b60405162461bcd60e51b815260206004820152600c60248201526b139bdd08185b881859d95b9d60a21b6044820152606490fd5b15611bd257565b606460405162461bcd60e51b815260206004820152602060248201527f4f6e6c792072656769737465726564206167656e74732063616e2074726164656044820152fd5b15611c1d57565b60405162461bcd60e51b81526020600482015260136024820152724167656e74206973206e6f742061637469766560681b6044820152606490fd5b81810292918115918404141715611b5957565b8115611c75570490565b634e487b7160e01b600052601260045260246000fd5b60009081526002602052604081206005810154908115611cfb576006015491670de0b6b3a764000092838102938185041490151715611ce7576207a12080830292830403611ce7575090620f4240611ce4920490611c6b565b90565b634e487b7160e01b81526011600452602490fd5b505050655af3107a400090565b611d36670de0b6b3a764000091806000526002602052611d3060056040600020015491611c8b565b90611c58565b0490565b91908201809211611b5957565b9060008281526002602052611d5f6040822093611c8b565b670de0b6b3a76400009384840290848204861485151715611dcb57600501546001600160ff1b0381168103611dcb57611da69291611da09160011b90611c6b565b93611c58565b918301809311611ce757506ec097ce7bc90715b34b9f100000000091611d3691611c58565b634e487b7160e01b84526011600452602484fd5b91908203918211611b5957565b9060008281526002602052611e046040822093611c8b565b670de0b6b3a76400009384840290848204861485151715611dcb57600501546001600160ff1b0381168103611dcb57611e459291611da09160011b90611c6b565b918303928311611ce757506ec097ce7bc90715b34b9f100000000091611d3691611c58565b15611e7157565b60405162461bcd60e51b8152602060048201526014602482015273151bdad95b88191bd95cc81b9bdd08195e1a5cdd60621b6044820152606490fd5b15611eb457565b60405162461bcd60e51b8152602060048201526013602482015272151bdad95b881a185cc819dc98591d585d1959606a1b6044820152606490fd5b15611ef657565b60405162461bcd60e51b81526020600482015260126024820152710416d6f756e74206d757374206265203e20360741b6044820152606490fd5b600260015414611f41576002600155565b604051633ee5aeb560e01b8152600490fdfea2646970667358221220016dbfbb62b842012efd0fbe2492d17d6c027f0459d645ca551cdaab9908e64264736f6c63430008140033","opcodes":"PUSH1 0x80 DUP1 PUSH1 0x40 MSTORE CALLVALUE PUSH2 0x7E JUMPI CALLER ISZERO PUSH2 0x68 JUMPI PUSH1 0x0 DUP1 SLOAD CALLER PUSH1 0x1 PUSH1 0x1 PUSH1 0xA0 SHL SUB NOT DUP3 AND DUP2 OR DUP4 SSTORE PUSH1 0x40 MLOAD SWAP3 SWAP1 SWAP2 PUSH1 0x1 PUSH1 0x1 PUSH1 0xA0 SHL SUB AND SWAP1 PUSH32 0x8BE0079C531659141344CD1FD0A4F28419497F9722A3DAAFE3B4186F6B6457E0 SWAP1 DUP1 LOG3 PUSH1 0x1 DUP1 SSTORE PUSH2 0x1F89 SWAP1 DUP2 PUSH2 0x84 DUP3 CODECOPY RETURN JUMPDEST PUSH4 0x1E4FBDF7 PUSH1 0xE0 SHL DUP2 MSTORE PUSH1 0x0 PUSH1 0x4 DUP3 ADD MSTORE PUSH1 0x24 SWAP1 REVERT JUMPDEST PUSH1 0x0 DUP1 REVERT INVALID PUSH1 0x80 PUSH1 0x40 MSTORE PUSH1 0x4 CALLDATASIZE LT ISZERO PUSH2 0x1B JUMPI JUMPDEST CALLDATASIZE ISZERO PUSH2 0x19 JUMPI PUSH1 0x0 DUP1 REVERT JUMPDEST STOP JUMPDEST PUSH1 0x0 CALLDATALOAD PUSH1 0xE0 SHR DUP1 PUSH4 0x152052B0 EQ PUSH2 0x183C JUMPI DUP1 PUSH4 0x1F320331 EQ PUSH2 0x159E JUMPI DUP1 PUSH4 0x1FFBB064 EQ PUSH2 0x17FD JUMPI DUP1 PUSH4 0x283C9C31 EQ PUSH2 0x17DF JUMPI DUP1 PUSH4 0x2F4E9A69 EQ PUSH2 0x17BB JUMPI DUP1 PUSH4 0x2F80C54F EQ PUSH2 0x1779 JUMPI DUP1 PUSH4 0x2FF2E9DC EQ PUSH2 0x1754 JUMPI DUP1 PUSH4 0x3CCFD60B EQ PUSH2 0x170D JUMPI DUP1 PUSH4 0x4E81BA8E EQ PUSH2 0x16AA JUMPI DUP1 PUSH4 0x4F64B2BE EQ PUSH2 0x15E6 JUMPI DUP1 PUSH4 0x667FFAE4 EQ PUSH2 0x159E JUMPI DUP1 PUSH4 0x715018A6 EQ PUSH2 0x1545 JUMPI DUP1 PUSH4 0x7216FE48 EQ PUSH2 0x104B JUMPI DUP1 PUSH4 0x860E4AC6 EQ PUSH2 0xF83 JUMPI DUP1 PUSH4 0x8DA5CB5B EQ PUSH2 0xF5A JUMPI DUP1 PUSH4 0x9477D85D EQ PUSH2 0xF41 JUMPI DUP1 PUSH4 0x94AED7D0 EQ PUSH2 0x951 JUMPI DUP1 PUSH4 0x9F181B5E EQ PUSH2 0x933 JUMPI DUP1 PUSH4 0xAAF5EB68 EQ PUSH2 0x910 JUMPI DUP1 PUSH4 0xB0A0A927 EQ PUSH2 0x88B JUMPI DUP1 PUSH4 0xB7DC1284 EQ PUSH2 0x86D JUMPI DUP1 PUSH4 0xC157253D EQ PUSH2 0x854 JUMPI DUP1 PUSH4 0xD6FEBDE8 EQ PUSH2 0x61F JUMPI DUP1 PUSH4 0xD79875EB EQ PUSH2 0x3F3 JUMPI DUP1 PUSH4 0xE37DBFD9 EQ PUSH2 0x3D5 JUMPI DUP1 PUSH4 0xE4B50CB8 EQ PUSH2 0x2EE JUMPI DUP1 PUSH4 0xE7572230 EQ PUSH2 0x2C8 JUMPI DUP1 PUSH4 0xF2FDE38B EQ PUSH2 0x23F JUMPI DUP1 PUSH4 0xF86325ED EQ PUSH2 0x21E JUMPI PUSH4 0xFD66091E SUB PUSH2 0xE JUMPI CALLVALUE PUSH2 0x219 JUMPI PUSH1 0x20 CALLDATASIZE PUSH1 0x3 NOT ADD SLT PUSH2 0x219 JUMPI PUSH2 0x1EB PUSH1 0x1 PUSH1 0x1 PUSH1 0xA0 SHL SUB DUP1 PUSH2 0x18F PUSH2 0x18DB JUMP JUMPDEST AND PUSH1 0x0 MSTORE PUSH1 0x4 PUSH1 0x20 MSTORE PUSH1 0x40 PUSH1 0x0 KECCAK256 PUSH2 0x1A6 DUP2 PUSH2 0x19EF JUMP JUMPDEST SWAP2 PUSH2 0x1B3 PUSH1 0x1 DUP4 ADD PUSH2 0x19EF JUMP JUMPDEST SWAP1 PUSH1 0x2 DUP4 ADD SLOAD AND SWAP2 PUSH1 0x3 DUP2 ADD SLOAD PUSH1 0x4 DUP3 ADD SLOAD SWAP1 PUSH2 0x1F9 PUSH1 0xFF PUSH1 0x6 PUSH1 0x5 DUP7 ADD SLOAD SWAP6 ADD SLOAD AND SWAP5 PUSH1 0x40 MLOAD SWAP9 DUP10 SWAP9 PUSH1 0xE0 DUP11 MSTORE PUSH1 0xE0 DUP11 ADD SWAP1 PUSH2 0x1907 JUMP JUMPDEST SWAP1 DUP9 DUP3 SUB PUSH1 0x20 DUP11 ADD MSTORE PUSH2 0x1907 JUMP JUMPDEST SWAP5 PUSH1 0x40 DUP8 ADD MSTORE PUSH1 0x60 DUP7 ADD MSTORE PUSH1 0x80 DUP6 ADD MSTORE PUSH1 0xA0 DUP5 ADD MSTORE ISZERO ISZERO PUSH1 0xC0 DUP4 ADD MSTORE SUB SWAP1 RETURN JUMPDEST PUSH1 0x0 DUP1 REVERT JUMPDEST CALLVALUE PUSH2 0x219 JUMPI PUSH1 0x0 CALLDATASIZE PUSH1 0x3 NOT ADD SLT PUSH2 0x219 JUMPI PUSH1 0x20 PUSH1 0x40 MLOAD PUSH6 0x5AF3107A4000 DUP2 MSTORE RETURN JUMPDEST CALLVALUE PUSH2 0x219 JUMPI PUSH1 0x20 CALLDATASIZE PUSH1 0x3 NOT ADD SLT PUSH2 0x219 JUMPI PUSH2 0x258 PUSH2 0x18DB JUMP JUMPDEST PUSH2 0x260 PUSH2 0x1AD8 JUMP JUMPDEST PUSH1 0x1 PUSH1 0x1 PUSH1 0xA0 SHL SUB SWAP1 DUP2 AND SWAP1 DUP2 ISZERO PUSH2 0x2AF JUMPI PUSH1 0x0 SLOAD DUP3 PUSH1 0x1 PUSH1 0x1 PUSH1 0x60 SHL SUB PUSH1 0xA0 SHL DUP3 AND OR PUSH1 0x0 SSTORE AND PUSH32 0x8BE0079C531659141344CD1FD0A4F28419497F9722A3DAAFE3B4186F6B6457E0 PUSH1 0x0 DUP1 LOG3 STOP JUMPDEST PUSH1 0x40 MLOAD PUSH4 0x1E4FBDF7 PUSH1 0xE0 SHL DUP2 MSTORE PUSH1 0x0 PUSH1 0x4 DUP3 ADD MSTORE PUSH1 0x24 SWAP1 REVERT JUMPDEST CALLVALUE PUSH2 0x219 JUMPI PUSH1 0x20 CALLDATASIZE PUSH1 0x3 NOT ADD SLT PUSH2 0x219 JUMPI PUSH1 0x20 PUSH2 0x2E6 PUSH1 0x4 CALLDATALOAD PUSH2 0x1C8B JUMP JUMPDEST PUSH1 0x40 MLOAD SWAP1 DUP2 MSTORE RETURN JUMPDEST CALLVALUE PUSH2 0x219 JUMPI PUSH1 0x20 CALLDATASIZE PUSH1 0x3 NOT ADD SLT PUSH2 0x219 JUMPI PUSH2 0x38D PUSH1 0x4 CALLDATALOAD DUP1 PUSH1 0x0 MSTORE PUSH1 0x2 PUSH1 0x20 MSTORE PUSH1 0x40 PUSH1 0x0 KECCAK256 SWAP1 PUSH1 0x1 DUP1 PUSH1 0xA0 SHL SUB PUSH1 0x3 DUP4 ADD SLOAD AND SWAP1 PUSH1 0x4 DUP4 ADD SLOAD SWAP1 PUSH1 0x5 DUP5 ADD SLOAD SWAP1 PUSH1 0x6 DUP6 ADD SLOAD PUSH2 0x345 PUSH2 0x33F DUP4 PUSH2 0x1C8B JUMP JUMPDEST SWAP3 PUSH2 0x1D08 JUMP JUMPDEST SWAP3 PUSH1 0xFF PUSH1 0x7 DUP9 ADD SLOAD AND SWAP5 PUSH2 0x3A9 PUSH2 0x35B DUP10 PUSH2 0x19EF JUMP JUMPDEST SWAP9 PUSH2 0x39B PUSH2 0x377 PUSH1 0x2 PUSH2 0x370 PUSH1 0x1 DUP6 ADD PUSH2 0x19EF JUMP JUMPDEST SWAP4 ADD PUSH2 0x19EF JUMP JUMPDEST SWAP2 PUSH1 0x40 MLOAD SWAP13 DUP14 SWAP13 DUP14 PUSH2 0x140 SWAP1 DUP2 DUP2 MSTORE ADD SWAP1 PUSH2 0x1907 JUMP JUMPDEST DUP13 DUP2 SUB PUSH1 0x20 DUP15 ADD MSTORE SWAP1 PUSH2 0x1907 JUMP JUMPDEST SWAP1 DUP11 DUP3 SUB PUSH1 0x40 DUP13 ADD MSTORE PUSH2 0x1907 JUMP JUMPDEST SWAP7 PUSH1 0x60 DUP10 ADD MSTORE PUSH1 0x80 DUP9 ADD MSTORE PUSH1 0xA0 DUP8 ADD MSTORE PUSH1 0xC0 DUP7 ADD MSTORE PUSH1 0xE0 DUP6 ADD MSTORE PUSH2 0x100 DUP5 ADD MSTORE ISZERO ISZERO PUSH2 0x120 DUP4 ADD MSTORE SUB SWAP1 RETURN JUMPDEST CALLVALUE PUSH2 0x219 JUMPI PUSH1 0x0 CALLDATASIZE PUSH1 0x3 NOT ADD SLT PUSH2 0x219 JUMPI PUSH1 0x20 PUSH1 0x40 MLOAD PUSH3 0x7A120 DUP2 MSTORE RETURN JUMPDEST CALLVALUE PUSH2 0x219 JUMPI PUSH2 0x401 CALLDATASIZE PUSH2 0x1AC2 JUMP JUMPDEST SWAP1 CALLER PUSH1 0x0 MSTORE PUSH1 0x20 SWAP2 PUSH1 0x5 DUP4 MSTORE PUSH2 0x41E PUSH1 0xFF PUSH1 0x40 PUSH1 0x0 KECCAK256 SLOAD AND PUSH2 0x1BCB JUMP JUMPDEST CALLER PUSH1 0x0 MSTORE PUSH1 0x4 DUP4 MSTORE PUSH2 0x43A PUSH1 0xFF PUSH1 0x6 PUSH1 0x40 PUSH1 0x0 KECCAK256 ADD SLOAD AND PUSH2 0x1C16 JUMP JUMPDEST PUSH2 0x442 PUSH2 0x1F30 JUMP JUMPDEST PUSH2 0x44F PUSH1 0x6 SLOAD DUP4 LT PUSH2 0x1E6A JUMP JUMPDEST DUP2 PUSH1 0x0 MSTORE PUSH1 0x2 DUP4 MSTORE PUSH1 0x40 PUSH1 0x0 KECCAK256 SWAP1 PUSH2 0x46E PUSH1 0xFF PUSH1 0x7 DUP5 ADD SLOAD AND ISZERO PUSH2 0x1EAD JUMP JUMPDEST PUSH2 0x479 DUP2 ISZERO ISZERO PUSH2 0x1EEF JUMP JUMPDEST DUP3 PUSH1 0x0 MSTORE PUSH1 0x3 DUP5 MSTORE PUSH1 0x40 PUSH1 0x0 KECCAK256 CALLER PUSH1 0x0 MSTORE DUP5 MSTORE DUP1 PUSH1 0x40 PUSH1 0x0 KECCAK256 SLOAD LT PUSH2 0x5E3 JUMPI PUSH2 0x4A2 DUP2 DUP5 PUSH2 0x1DEC JUMP JUMPDEST SWAP2 PUSH1 0x6 DUP2 ADD SWAP1 DUP2 SLOAD SWAP1 DUP5 DUP3 LT PUSH2 0x5A6 JUMPI PUSH2 0x4CD SWAP2 PUSH1 0x5 DUP7 SWAP3 ADD PUSH2 0x4C6 DUP7 DUP3 SLOAD PUSH2 0x1DDF JUMP JUMPDEST SWAP1 SSTORE PUSH2 0x1DDF JUMP JUMPDEST SWAP1 SSTORE DUP3 PUSH1 0x0 MSTORE PUSH1 0x3 DUP5 MSTORE PUSH1 0x40 PUSH1 0x0 KECCAK256 CALLER PUSH1 0x0 MSTORE DUP5 MSTORE PUSH1 0x40 PUSH1 0x0 KECCAK256 PUSH2 0x4F2 DUP3 DUP3 SLOAD PUSH2 0x1DDF JUMP JUMPDEST SWAP1 SSTORE CALLER PUSH1 0x0 MSTORE PUSH1 0x4 DUP5 MSTORE PUSH1 0x3 PUSH1 0x40 PUSH1 0x0 KECCAK256 ADD PUSH2 0x50E DUP2 SLOAD PUSH2 0x1B4A JUMP JUMPDEST SWAP1 SSTORE CALLER PUSH1 0x0 MSTORE PUSH1 0x4 DUP5 MSTORE PUSH1 0x4 PUSH1 0x40 PUSH1 0x0 KECCAK256 ADD PUSH2 0x52B DUP4 DUP3 SLOAD PUSH2 0x1D3A JUMP JUMPDEST SWAP1 SSTORE DUP2 PUSH1 0x0 DUP2 ISZERO PUSH2 0x59D JUMPI JUMPDEST PUSH1 0x0 DUP1 DUP1 SWAP4 DUP2 SWAP4 CALLER SWAP1 CALL ISZERO PUSH2 0x591 JUMPI PUSH2 0x54F DUP4 PUSH2 0x1C8B JUMP JUMPDEST SWAP1 PUSH1 0x40 MLOAD SWAP5 PUSH1 0x0 DUP7 MSTORE DUP6 ADD MSTORE PUSH1 0x40 DUP5 ADD MSTORE PUSH1 0x60 DUP4 ADD MSTORE PUSH32 0x4751C5D55B3F49E18B20719A1A2338B9654CB6CD4D71150F79E96FDF565E227D PUSH1 0x80 CALLER SWAP4 LOG3 PUSH1 0x1 DUP1 SSTORE STOP JUMPDEST PUSH1 0x40 MLOAD RETURNDATASIZE PUSH1 0x0 DUP3 RETURNDATACOPY RETURNDATASIZE SWAP1 REVERT JUMPDEST POP PUSH2 0x8FC PUSH2 0x537 JUMP JUMPDEST PUSH1 0x40 MLOAD PUSH3 0x461BCD PUSH1 0xE5 SHL DUP2 MSTORE PUSH1 0x4 DUP2 ADD DUP9 SWAP1 MSTORE PUSH1 0x15 PUSH1 0x24 DUP3 ADD MSTORE PUSH21 0x496E73756666696369656E74207265736572766573 PUSH1 0x58 SHL PUSH1 0x44 DUP3 ADD MSTORE PUSH1 0x64 SWAP1 REVERT JUMPDEST PUSH1 0x40 MLOAD PUSH3 0x461BCD PUSH1 0xE5 SHL DUP2 MSTORE PUSH1 0x4 DUP2 ADD DUP6 SWAP1 MSTORE PUSH1 0x14 PUSH1 0x24 DUP3 ADD MSTORE PUSH20 0x496E73756666696369656E742062616C616E6365 PUSH1 0x60 SHL PUSH1 0x44 DUP3 ADD MSTORE PUSH1 0x64 SWAP1 REVERT JUMPDEST PUSH2 0x628 CALLDATASIZE PUSH2 0x1AC2 JUMP JUMPDEST SWAP1 CALLER PUSH1 0x0 MSTORE PUSH1 0x20 SWAP2 PUSH1 0x5 DUP4 MSTORE PUSH2 0x645 PUSH1 0xFF PUSH1 0x40 PUSH1 0x0 KECCAK256 SLOAD AND PUSH2 0x1BCB JUMP JUMPDEST CALLER PUSH1 0x0 MSTORE PUSH1 0x4 DUP4 MSTORE PUSH2 0x661 PUSH1 0xFF PUSH1 0x6 PUSH1 0x40 PUSH1 0x0 KECCAK256 ADD SLOAD AND PUSH2 0x1C16 JUMP JUMPDEST PUSH2 0x669 PUSH2 0x1F30 JUMP JUMPDEST PUSH2 0x676 PUSH1 0x6 SLOAD DUP4 LT PUSH2 0x1E6A JUMP JUMPDEST DUP2 PUSH1 0x0 MSTORE PUSH1 0x2 DUP4 MSTORE PUSH1 0x40 PUSH1 0x0 KECCAK256 SWAP1 PUSH1 0x7 DUP3 ADD PUSH2 0x696 PUSH1 0xFF DUP3 SLOAD AND ISZERO PUSH2 0x1EAD JUMP JUMPDEST PUSH2 0x6A1 DUP3 ISZERO ISZERO PUSH2 0x1EEF JUMP JUMPDEST PUSH2 0x6AB DUP3 DUP6 PUSH2 0x1D47 JUMP JUMPDEST SWAP3 DUP4 CALLVALUE LT PUSH2 0x818 JUMPI DUP1 PUSH1 0x5 PUSH1 0x6 SWAP3 ADD PUSH2 0x6C5 DUP6 DUP3 SLOAD PUSH2 0x1D3A JUMP JUMPDEST SWAP1 SSTORE ADD PUSH2 0x6D3 DUP5 DUP3 SLOAD PUSH2 0x1D3A JUMP JUMPDEST SWAP1 SSTORE DUP4 PUSH1 0x0 MSTORE PUSH1 0x3 DUP6 MSTORE PUSH1 0x40 PUSH1 0x0 KECCAK256 CALLER PUSH1 0x0 MSTORE DUP6 MSTORE PUSH1 0x40 PUSH1 0x0 KECCAK256 PUSH2 0x6F8 DUP4 DUP3 SLOAD PUSH2 0x1D3A JUMP JUMPDEST SWAP1 SSTORE CALLER PUSH1 0x0 MSTORE PUSH1 0x4 DUP6 MSTORE PUSH1 0x3 PUSH1 0x40 PUSH1 0x0 KECCAK256 ADD PUSH2 0x714 DUP2 SLOAD PUSH2 0x1B4A JUMP JUMPDEST SWAP1 SSTORE CALLER PUSH1 0x0 MSTORE PUSH1 0x4 DUP6 MSTORE PUSH1 0x4 PUSH1 0x40 PUSH1 0x0 KECCAK256 ADD PUSH2 0x731 DUP5 DUP3 SLOAD PUSH2 0x1D3A JUMP JUMPDEST SWAP1 SSTORE PUSH9 0x3BD913E6C1DF40000 PUSH2 0x746 DUP6 PUSH2 0x1D08 JUMP JUMPDEST LT ISZERO PUSH2 0x7D4 JUMPI JUMPDEST POP DUP2 CALLVALUE GT PUSH2 0x7A1 JUMPI JUMPDEST PUSH2 0x75F DUP4 PUSH2 0x1C8B JUMP JUMPDEST SWAP1 PUSH1 0x40 MLOAD SWAP5 PUSH1 0x1 DUP7 MSTORE DUP6 ADD MSTORE PUSH1 0x40 DUP5 ADD MSTORE PUSH1 0x60 DUP4 ADD MSTORE PUSH32 0x4751C5D55B3F49E18B20719A1A2338B9654CB6CD4D71150F79E96FDF565E227D PUSH1 0x80 CALLER SWAP4 LOG3 PUSH1 0x1 DUP1 SSTORE STOP JUMPDEST PUSH1 0x0 DUP1 DUP1 DUP1 PUSH2 0x7B0 DUP7 CALLVALUE PUSH2 0x1DDF JUMP JUMPDEST DUP2 DUP2 ISZERO PUSH2 0x7CB JUMPI JUMPDEST CALLER SWAP1 CALL PUSH2 0x756 JUMPI PUSH1 0x40 MLOAD RETURNDATASIZE PUSH1 0x0 DUP3 RETURNDATACOPY RETURNDATASIZE SWAP1 REVERT JUMPDEST POP PUSH2 0x8FC PUSH2 0x7B8 JUMP JUMPDEST DUP1 SLOAD PUSH1 0xFF NOT AND PUSH1 0x1 OR SWAP1 SSTORE DUP3 PUSH32 0xE35DD07099511D4CF4F6B2E3D4B6FA088180ACF5AB1107223E9608456C7306BC DUP6 PUSH2 0x80B DUP4 PUSH2 0x1D08 JUMP JUMPDEST PUSH1 0x40 MLOAD SWAP1 DUP2 MSTORE LOG2 DUP5 PUSH2 0x74D JUMP JUMPDEST PUSH1 0x40 MLOAD PUSH3 0x461BCD PUSH1 0xE5 SHL DUP2 MSTORE PUSH1 0x4 DUP2 ADD DUP8 SWAP1 MSTORE PUSH1 0x14 PUSH1 0x24 DUP3 ADD MSTORE PUSH20 0x125B9CDD59999A58DA595B9D081C185E5B595B9D PUSH1 0x62 SHL PUSH1 0x44 DUP3 ADD MSTORE PUSH1 0x64 SWAP1 REVERT JUMPDEST CALLVALUE PUSH2 0x219 JUMPI PUSH1 0x20 PUSH2 0x2E6 PUSH2 0x867 CALLDATASIZE PUSH2 0x1AC2 JUMP JUMPDEST SWAP1 PUSH2 0x1D47 JUMP JUMPDEST CALLVALUE PUSH2 0x219 JUMPI PUSH1 0x0 CALLDATASIZE PUSH1 0x3 NOT ADD SLT PUSH2 0x219 JUMPI PUSH1 0x20 PUSH1 0x7 SLOAD PUSH1 0x40 MLOAD SWAP1 DUP2 MSTORE RETURN JUMPDEST CALLVALUE PUSH2 0x219 JUMPI PUSH1 0x20 CALLDATASIZE PUSH1 0x3 NOT ADD SLT PUSH2 0x219 JUMPI PUSH2 0x8A4 PUSH2 0x18DB JUMP JUMPDEST PUSH2 0x8AC PUSH2 0x1AD8 JUMP JUMPDEST PUSH1 0x1 PUSH1 0x1 PUSH1 0xA0 SHL SUB AND PUSH1 0x0 DUP2 DUP2 MSTORE PUSH1 0x5 PUSH1 0x20 MSTORE PUSH1 0x40 SWAP1 KECCAK256 SLOAD PUSH2 0x8D0 SWAP1 PUSH1 0xFF AND PUSH2 0x1B90 JUMP JUMPDEST DUP1 PUSH1 0x0 MSTORE PUSH1 0x4 PUSH1 0x20 MSTORE PUSH1 0x6 PUSH1 0x40 PUSH1 0x0 KECCAK256 ADD PUSH1 0xFF NOT DUP2 SLOAD AND SWAP1 SSTORE PUSH32 0xA58C733780F5C1527D6106FF1E731CBF2E9FFC0EB11AD399CA33EA55F057DDF4 PUSH1 0x0 DUP1 LOG2 STOP JUMPDEST CALLVALUE PUSH2 0x219 JUMPI PUSH1 0x0 CALLDATASIZE PUSH1 0x3 NOT ADD SLT PUSH2 0x219 JUMPI PUSH1 0x20 PUSH1 0x40 MLOAD PUSH8 0xDE0B6B3A7640000 DUP2 MSTORE RETURN JUMPDEST CALLVALUE PUSH2 0x219 JUMPI PUSH1 0x0 CALLDATASIZE PUSH1 0x3 NOT ADD SLT PUSH2 0x219 JUMPI PUSH1 0x20 PUSH1 0x6 SLOAD PUSH1 0x40 MLOAD SWAP1 DUP2 MSTORE RETURN JUMPDEST CALLVALUE PUSH2 0x219 JUMPI PUSH1 0x60 CALLDATASIZE PUSH1 0x3 NOT ADD SLT PUSH2 0x219 JUMPI PUSH1 0x4 CALLDATALOAD PUSH1 0x1 PUSH1 0x1 PUSH1 0x40 SHL SUB DUP2 GT PUSH2 0x219 JUMPI PUSH2 0x981 SWAP1 CALLDATASIZE SWAP1 PUSH1 0x4 ADD PUSH2 0x1A95 JUMP JUMPDEST PUSH1 0x24 CALLDATALOAD PUSH1 0x1 PUSH1 0x1 PUSH1 0x40 SHL SUB DUP2 GT PUSH2 0x219 JUMPI PUSH2 0x9A0 SWAP1 CALLDATASIZE SWAP1 PUSH1 0x4 ADD PUSH2 0x1A95 JUMP JUMPDEST SWAP2 SWAP1 PUSH1 0x44 CALLDATALOAD PUSH1 0x1 PUSH1 0x1 PUSH1 0x40 SHL SUB DUP2 GT PUSH2 0x219 JUMPI PUSH2 0x9C1 SWAP1 CALLDATASIZE SWAP1 PUSH1 0x4 ADD PUSH2 0x1A95 JUMP JUMPDEST SWAP3 SWAP1 SWAP3 CALLER PUSH1 0x0 MSTORE PUSH1 0x5 PUSH1 0x20 MSTORE PUSH2 0x9DE PUSH1 0xFF PUSH1 0x40 PUSH1 0x0 KECCAK256 SLOAD AND PUSH2 0x1BCB JUMP JUMPDEST CALLER PUSH1 0x0 MSTORE PUSH1 0x4 PUSH1 0x20 MSTORE PUSH2 0x9FB PUSH1 0xFF PUSH1 0x6 PUSH1 0x40 PUSH1 0x0 KECCAK256 ADD SLOAD AND PUSH2 0x1C16 JUMP JUMPDEST PUSH1 0x6 SLOAD SWAP5 PUSH2 0xA08 DUP7 PUSH2 0x1B4A JUMP JUMPDEST PUSH1 0x6 SSTORE PUSH1 0x40 MLOAD PUSH2 0x100 DUP2 ADD DUP2 DUP2 LT PUSH1 0x1 PUSH1 0x1 PUSH1 0x40 SHL SUB DUP3 GT OR PUSH2 0xD9A JUMPI PUSH1 0x40 MSTORE PUSH2 0xA33 CALLDATASIZE DUP6 DUP11 PUSH2 0x1B04 JUMP JUMPDEST DUP2 MSTORE PUSH2 0xA40 CALLDATASIZE DUP4 DUP8 PUSH2 0x1B04 JUMP JUMPDEST PUSH1 0x20 DUP3 ADD MSTORE PUSH2 0xA50 CALLDATASIZE DUP5 DUP9 PUSH2 0x1B04 JUMP JUMPDEST PUSH1 0x40 DUP3 ADD MSTORE CALLER PUSH1 0x60 DUP3 ADD MSTORE TIMESTAMP PUSH1 0x80 DUP3 ADD MSTORE PUSH10 0xD3C21BCECCEDA1000000 PUSH1 0xA0 DUP3 ADD MSTORE PUSH9 0x2B5E3AF16B1880000 PUSH1 0xC0 DUP3 ADD MSTORE PUSH1 0x0 PUSH1 0xE0 DUP3 ADD MSTORE DUP7 PUSH1 0x0 MSTORE PUSH1 0x2 PUSH1 0x20 MSTORE PUSH1 0x40 PUSH1 0x0 KECCAK256 SWAP1 DUP1 MLOAD DUP1 MLOAD SWAP1 PUSH1 0x1 PUSH1 0x1 PUSH1 0x40 SHL SUB DUP3 GT PUSH2 0xD9A JUMPI DUP2 SWAP1 PUSH2 0xAB5 DUP6 SLOAD PUSH2 0x1994 JUMP JUMPDEST PUSH1 0x1F DUP2 GT PUSH2 0xEF1 JUMPI JUMPDEST POP PUSH1 0x20 SWAP1 PUSH1 0x1F DUP4 GT PUSH1 0x1 EQ PUSH2 0xE8B JUMPI PUSH1 0x0 SWAP3 PUSH2 0xE80 JUMPI JUMPDEST POP POP DUP2 PUSH1 0x1 SHL SWAP2 PUSH1 0x0 NOT SWAP1 PUSH1 0x3 SHL SHR NOT AND OR DUP3 SSTORE JUMPDEST PUSH1 0x20 DUP2 ADD MLOAD DUP1 MLOAD SWAP1 PUSH1 0x1 PUSH1 0x1 PUSH1 0x40 SHL SUB DUP3 GT PUSH2 0xD9A JUMPI DUP2 SWAP1 PUSH2 0xB0F PUSH1 0x1 DUP7 ADD SLOAD PUSH2 0x1994 JUMP JUMPDEST PUSH1 0x1F DUP2 GT PUSH2 0xE2D JUMPI JUMPDEST POP PUSH1 0x20 SWAP1 PUSH1 0x1F DUP4 GT PUSH1 0x1 EQ PUSH2 0xDBB JUMPI PUSH1 0x0 SWAP3 PUSH2 0xDB0 JUMPI JUMPDEST POP POP DUP2 PUSH1 0x1 SHL SWAP2 PUSH1 0x0 NOT SWAP1 PUSH1 0x3 SHL SHR NOT AND OR PUSH1 0x1 DUP4 ADD SSTORE JUMPDEST PUSH1 0x40 DUP2 ADD MLOAD DUP1 MLOAD SWAP1 PUSH1 0x1 PUSH1 0x1 PUSH1 0x40 SHL SUB DUP3 GT PUSH2 0xD9A JUMPI PUSH2 0xB6A PUSH1 0x2 DUP6 ADD SLOAD PUSH2 0x1994 JUMP JUMPDEST PUSH1 0x1F DUP2 GT PUSH2 0xD53 JUMPI JUMPDEST POP SWAP2 PUSH1 0x20 SWAP11 SWAP6 SWAP4 SWAP2 DUP11 SWAP8 SWAP6 SWAP4 DUP13 SWAP1 PUSH1 0x1F DUP4 GT PUSH1 0x1 EQ PUSH2 0xCA9 JUMPI SWAP4 PUSH1 0x7 PUSH1 0xE0 PUSH32 0x41C18030E878821EB90F9AB62B1395F3C29303473A3AC6A3A3D26B9999FB3939 SWAP12 SWAP13 SWAP6 DUP6 PUSH2 0xC93 SWAP11 SWAP10 SWAP7 PUSH2 0xC3B SWAP7 PUSH2 0xC83 SWAP11 PUSH1 0x0 SWAP3 PUSH2 0xC9E JUMPI JUMPDEST POP POP DUP2 PUSH1 0x1 SHL SWAP2 PUSH1 0x0 NOT SWAP1 PUSH1 0x3 SHL SHR NOT AND OR PUSH1 0x2 DUP6 ADD SSTORE JUMPDEST PUSH1 0x3 DUP5 ADD PUSH1 0x1 DUP1 PUSH1 0xA0 SHL SUB PUSH1 0x60 DUP4 ADD MLOAD AND PUSH1 0x1 PUSH1 0x1 PUSH1 0x60 SHL SUB PUSH1 0xA0 SHL DUP3 SLOAD AND OR SWAP1 SSTORE PUSH1 0x80 DUP2 ADD MLOAD PUSH1 0x4 DUP6 ADD SSTORE PUSH1 0xA0 DUP2 ADD MLOAD PUSH1 0x5 DUP6 ADD SSTORE PUSH1 0xC0 DUP2 ADD MLOAD PUSH1 0x6 DUP6 ADD SSTORE ADD MLOAD ISZERO ISZERO SWAP2 ADD SWAP1 PUSH1 0xFF DUP1 NOT DUP4 SLOAD AND SWAP2 ISZERO ISZERO AND OR SWAP1 SSTORE JUMP JUMPDEST DUP9 PUSH1 0x0 MSTORE PUSH1 0x3 DUP13 MSTORE PUSH1 0x40 PUSH1 0x0 KECCAK256 CALLER PUSH1 0x0 MSTORE DUP13 MSTORE PUSH10 0x152D02C7E14AF6800000 PUSH1 0x40 PUSH1 0x0 KECCAK256 SSTORE PUSH2 0xC76 PUSH1 0x40 MLOAD SWAP8 DUP9 SWAP8 PUSH1 0x60 DUP10 MSTORE PUSH1 0x60 DUP10 ADD SWAP2 PUSH2 0x1B6F JUMP JUMPDEST SWAP2 DUP7 DUP4 SUB DUP14 DUP9 ADD MSTORE PUSH2 0x1B6F JUMP JUMPDEST SWAP1 DUP4 DUP3 SUB PUSH1 0x40 DUP6 ADD MSTORE CALLER SWAP8 PUSH2 0x1B6F JUMP JUMPDEST SUB SWAP1 LOG3 PUSH1 0x40 MLOAD SWAP1 DUP2 MSTORE RETURN JUMPDEST ADD MLOAD SWAP1 POP CODESIZE DUP1 PUSH2 0xBCC JUMP JUMPDEST SWAP10 SWAP5 SWAP4 SWAP3 SWAP2 SWAP1 PUSH1 0x2 DUP5 ADD PUSH1 0x0 MSTORE DUP14 PUSH1 0x0 KECCAK256 SWAP11 PUSH1 0x0 JUMPDEST PUSH1 0x1F NOT DUP5 AND DUP2 LT PUSH2 0xD39 JUMPI POP PUSH1 0xE0 PUSH2 0xC83 SWAP7 SWAP5 PUSH1 0x1 DUP6 PUSH32 0x41C18030E878821EB90F9AB62B1395F3C29303473A3AC6A3A3D26B9999FB3939 SWAP15 SWAP16 PUSH2 0xC93 SWAP13 SWAP12 SWAP10 SWAP7 PUSH1 0x7 SWAP7 PUSH2 0xC3B SWAP10 PUSH1 0x1F NOT DUP2 AND LT PUSH2 0xD20 JUMPI JUMPDEST POP POP POP DUP2 SHL ADD PUSH1 0x2 DUP6 ADD SSTORE PUSH2 0xBE4 JUMP JUMPDEST ADD MLOAD PUSH1 0x0 NOT PUSH1 0xF8 DUP5 PUSH1 0x3 SHL AND SHR NOT AND SWAP1 SSTORE CODESIZE DUP1 DUP1 PUSH2 0xD10 JUMP JUMPDEST DUP3 DUP3 ADD MLOAD DUP14 SSTORE PUSH1 0x1 SWAP1 SWAP13 ADD SWAP12 DUP15 SWAP12 POP SWAP2 DUP16 ADD SWAP2 DUP16 ADD PUSH2 0xCBE JUMP JUMPDEST PUSH1 0x2 DUP6 ADD PUSH1 0x0 MSTORE PUSH1 0x20 PUSH1 0x0 KECCAK256 PUSH1 0x1F DUP5 ADD PUSH1 0x5 SHR DUP2 ADD PUSH1 0x20 DUP6 LT PUSH2 0xD93 JUMPI JUMPDEST PUSH1 0x1F DUP4 ADD PUSH1 0x5 SHR DUP3 ADD DUP2 LT PUSH2 0xD87 JUMPI POP POP PUSH2 0xB73 JUMP JUMPDEST PUSH1 0x0 DUP2 SSTORE PUSH1 0x1 ADD PUSH2 0xD71 JUMP JUMPDEST POP DUP1 PUSH2 0xD71 JUMP JUMPDEST PUSH4 0x4E487B71 PUSH1 0xE0 SHL PUSH1 0x0 MSTORE PUSH1 0x41 PUSH1 0x4 MSTORE PUSH1 0x24 PUSH1 0x0 REVERT JUMPDEST ADD MLOAD SWAP1 POP DUP12 DUP1 PUSH2 0xB2F JUMP JUMPDEST SWAP3 POP PUSH1 0x1 DUP6 ADD PUSH1 0x0 MSTORE PUSH1 0x20 PUSH1 0x0 KECCAK256 SWAP1 PUSH1 0x0 SWAP4 JUMPDEST PUSH1 0x1F NOT DUP5 AND DUP6 LT PUSH2 0xE12 JUMPI PUSH1 0x1 SWAP5 POP DUP4 PUSH1 0x1F NOT DUP2 AND LT PUSH2 0xDF9 JUMPI JUMPDEST POP POP POP DUP2 SHL ADD PUSH1 0x1 DUP4 ADD SSTORE PUSH2 0xB47 JUMP JUMPDEST ADD MLOAD PUSH1 0x0 NOT PUSH1 0xF8 DUP5 PUSH1 0x3 SHL AND SHR NOT AND SWAP1 SSTORE DUP12 DUP1 DUP1 PUSH2 0xDE9 JUMP JUMPDEST DUP2 DUP2 ADD MLOAD DUP4 SSTORE PUSH1 0x20 SWAP5 DUP6 ADD SWAP5 PUSH1 0x1 SWAP1 SWAP4 ADD SWAP3 SWAP1 SWAP2 ADD SWAP1 PUSH2 0xDCE JUMP JUMPDEST SWAP1 SWAP2 POP PUSH1 0x1 DUP6 ADD PUSH1 0x0 MSTORE PUSH1 0x20 PUSH1 0x0 KECCAK256 PUSH1 0x1F DUP5 ADD PUSH1 0x5 SHR DUP2 ADD PUSH1 0x20 DUP6 LT PUSH2 0xE79 JUMPI JUMPDEST SWAP1 DUP5 SWAP4 SWAP3 SWAP2 JUMPDEST PUSH1 0x1F DUP4 ADD PUSH1 0x5 SHR DUP3 ADD DUP2 LT PUSH2 0xE6A JUMPI POP POP PUSH2 0xB18 JUMP JUMPDEST PUSH1 0x0 DUP2 SSTORE DUP6 SWAP5 POP PUSH1 0x1 ADD PUSH2 0xE54 JUMP JUMPDEST POP DUP1 PUSH2 0xE4E JUMP JUMPDEST ADD MLOAD SWAP1 POP DUP12 DUP1 PUSH2 0xAD5 JUMP JUMPDEST PUSH1 0x0 DUP7 DUP2 MSTORE PUSH1 0x20 DUP2 KECCAK256 SWAP4 POP PUSH1 0x1F NOT DUP6 AND SWAP1 JUMPDEST DUP2 DUP2 LT PUSH2 0xED9 JUMPI POP SWAP1 DUP5 PUSH1 0x1 SWAP6 SWAP5 SWAP4 SWAP3 LT PUSH2 0xEC0 JUMPI JUMPDEST POP POP POP DUP2 SHL ADD DUP3 SSTORE PUSH2 0xAEA JUMP JUMPDEST ADD MLOAD PUSH1 0x0 NOT PUSH1 0xF8 DUP5 PUSH1 0x3 SHL AND SHR NOT AND SWAP1 SSTORE DUP12 DUP1 DUP1 PUSH2 0xEB3 JUMP JUMPDEST SWAP3 SWAP4 PUSH1 0x20 PUSH1 0x1 DUP2 SWAP3 DUP8 DUP7 ADD MLOAD DUP2 SSTORE ADD SWAP6 ADD SWAP4 ADD PUSH2 0xE9D JUMP JUMPDEST SWAP1 SWAP2 POP DUP5 PUSH1 0x0 MSTORE PUSH1 0x20 PUSH1 0x0 KECCAK256 PUSH1 0x1F DUP5 ADD PUSH1 0x5 SHR DUP2 ADD PUSH1 0x20 DUP6 LT PUSH2 0xF3A JUMPI JUMPDEST SWAP1 DUP5 SWAP4 SWAP3 SWAP2 JUMPDEST PUSH1 0x1F DUP4 ADD PUSH1 0x5 SHR DUP3 ADD DUP2 LT PUSH2 0xF2B JUMPI POP POP PUSH2 0xABE JUMP JUMPDEST PUSH1 0x0 DUP2 SSTORE DUP6 SWAP5 POP PUSH1 0x1 ADD PUSH2 0xF15 JUMP JUMPDEST POP DUP1 PUSH2 0xF0F JUMP JUMPDEST CALLVALUE PUSH2 0x219 JUMPI PUSH1 0x20 PUSH2 0x2E6 PUSH2 0xF54 CALLDATASIZE PUSH2 0x1AC2 JUMP JUMPDEST SWAP1 PUSH2 0x1DEC JUMP JUMPDEST CALLVALUE PUSH2 0x219 JUMPI PUSH1 0x0 CALLDATASIZE PUSH1 0x3 NOT ADD SLT PUSH2 0x219 JUMPI PUSH1 0x0 SLOAD PUSH1 0x40 MLOAD PUSH1 0x1 PUSH1 0x1 PUSH1 0xA0 SHL SUB SWAP1 SWAP2 AND DUP2 MSTORE PUSH1 0x20 SWAP1 RETURN JUMPDEST CALLVALUE PUSH2 0x219 JUMPI PUSH1 0x0 CALLDATASIZE PUSH1 0x3 NOT ADD SLT PUSH2 0x219 JUMPI PUSH1 0x40 MLOAD DUP1 PUSH1 0x8 SLOAD DUP1 DUP4 MSTORE PUSH1 0x20 DUP1 SWAP4 ADD DUP1 SWAP2 PUSH1 0x8 PUSH1 0x0 MSTORE PUSH32 0xF3F7A9FE364FAAB93B216DA50A3214154F22A0A2B415B23A84C8169E8B636EE3 SWAP1 PUSH1 0x0 JUMPDEST DUP7 DUP3 DUP3 LT PUSH2 0x102E JUMPI DUP7 DUP7 PUSH2 0xFE5 DUP3 DUP9 SUB DUP4 PUSH2 0x19CE JUMP JUMPDEST PUSH1 0x40 MLOAD SWAP3 DUP4 SWAP3 DUP2 DUP5 ADD SWAP1 DUP3 DUP6 MSTORE MLOAD DUP1 SWAP2 MSTORE PUSH1 0x40 DUP5 ADD SWAP3 SWAP2 PUSH1 0x0 JUMPDEST DUP3 DUP2 LT PUSH2 0x100E JUMPI POP POP POP POP SUB SWAP1 RETURN JUMPDEST DUP4 MLOAD PUSH1 0x1 PUSH1 0x1 PUSH1 0xA0 SHL SUB AND DUP6 MSTORE DUP7 SWAP6 POP SWAP4 DUP2 ADD SWAP4 SWAP3 DUP2 ADD SWAP3 PUSH1 0x1 ADD PUSH2 0xFFF JUMP JUMPDEST DUP4 SLOAD PUSH1 0x1 PUSH1 0x1 PUSH1 0xA0 SHL SUB AND DUP6 MSTORE SWAP1 SWAP4 ADD SWAP3 PUSH1 0x1 SWAP3 DUP4 ADD SWAP3 ADD PUSH2 0xFCF JUMP JUMPDEST CALLVALUE PUSH2 0x219 JUMPI PUSH1 0x60 CALLDATASIZE PUSH1 0x3 NOT ADD SLT PUSH2 0x219 JUMPI PUSH2 0x1064 PUSH2 0x18DB JUMP JUMPDEST PUSH1 0x24 CALLDATALOAD PUSH1 0x1 PUSH1 0x1 PUSH1 0x40 SHL SUB DUP2 GT PUSH2 0x219 JUMPI PUSH2 0x1083 SWAP1 CALLDATASIZE SWAP1 PUSH1 0x4 ADD PUSH2 0x1A95 JUMP JUMPDEST SWAP1 PUSH1 0x44 CALLDATALOAD PUSH1 0x1 PUSH1 0x1 PUSH1 0x40 SHL SUB DUP2 GT PUSH2 0x219 JUMPI PUSH2 0x10A3 SWAP1 CALLDATASIZE SWAP1 PUSH1 0x4 ADD PUSH2 0x1A95 JUMP JUMPDEST SWAP3 SWAP1 SWAP4 PUSH2 0x10AE PUSH2 0x1AD8 JUMP JUMPDEST PUSH1 0x1 PUSH1 0x1 PUSH1 0xA0 SHL SUB DUP2 AND PUSH1 0x0 SWAP1 DUP2 MSTORE PUSH1 0x5 PUSH1 0x20 MSTORE PUSH1 0x40 SWAP1 KECCAK256 SLOAD PUSH1 0xFF AND PUSH2 0x1500 JUMPI PUSH1 0x1 PUSH1 0x1 PUSH1 0xA0 SHL SUB DUP2 AND ISZERO PUSH2 0x14CA JUMPI PUSH1 0x40 MLOAD PUSH1 0xE0 DUP2 ADD DUP2 DUP2 LT PUSH1 0x1 PUSH1 0x1 PUSH1 0x40 SHL SUB DUP3 GT OR PUSH2 0xD9A JUMPI PUSH1 0x40 MSTORE PUSH2 0x1104 CALLDATASIZE DUP5 DUP7 PUSH2 0x1B04 JUMP JUMPDEST DUP2 MSTORE PUSH2 0x1111 CALLDATASIZE DUP7 DUP9 PUSH2 0x1B04 JUMP JUMPDEST PUSH1 0x20 DUP3 ADD MSTORE PUSH1 0x1 DUP1 PUSH1 0xA0 SHL SUB DUP3 AND PUSH1 0x40 DUP3 ADD MSTORE PUSH1 0x0 PUSH1 0x60 DUP3 ADD MSTORE PUSH1 0x0 PUSH1 0x80 DUP3 ADD MSTORE PUSH1 0x0 PUSH1 0xA0 DUP3 ADD MSTORE PUSH1 0x1 PUSH1 0xC0 DUP3 ADD MSTORE PUSH1 0x1 DUP1 PUSH1 0xA0 SHL SUB DUP3 AND PUSH1 0x0 MSTORE PUSH1 0x4 PUSH1 0x20 MSTORE PUSH1 0x40 PUSH1 0x0 KECCAK256 SWAP1 DUP1 MLOAD DUP1 MLOAD SWAP1 PUSH1 0x1 PUSH1 0x1 PUSH1 0x40 SHL SUB DUP3 GT PUSH2 0xD9A JUMPI DUP2 SWAP1 PUSH2 0x1176 DUP6 SLOAD PUSH2 0x1994 JUMP JUMPDEST PUSH1 0x1F DUP2 GT PUSH2 0x147A JUMPI JUMPDEST POP PUSH1 0x20 SWAP1 PUSH1 0x1F DUP4 GT PUSH1 0x1 EQ PUSH2 0x140E JUMPI PUSH1 0x0 SWAP3 PUSH2 0x1403 JUMPI JUMPDEST POP POP DUP2 PUSH1 0x1 SHL SWAP2 PUSH1 0x0 NOT SWAP1 PUSH1 0x3 SHL SHR NOT AND OR DUP3 SSTORE JUMPDEST PUSH1 0x20 DUP2 ADD MLOAD DUP1 MLOAD SWAP1 PUSH1 0x1 PUSH1 0x1 PUSH1 0x40 SHL SUB DUP3 GT PUSH2 0xD9A JUMPI PUSH2 0x11CE PUSH1 0x1 DUP6 ADD SLOAD PUSH2 0x1994 JUMP JUMPDEST PUSH1 0x1F DUP2 GT PUSH2 0x13BC JUMPI JUMPDEST POP PUSH1 0x20 SWAP1 PUSH1 0x1F DUP4 GT PUSH1 0x1 EQ PUSH2 0x1343 JUMPI SWAP3 DUP3 PUSH1 0x6 SWAP4 PUSH1 0xC0 SWAP4 PUSH2 0x126A SWAP8 SWAP7 PUSH1 0x0 SWAP3 PUSH2 0x1338 JUMPI JUMPDEST POP POP DUP2 PUSH1 0x1 SHL SWAP2 PUSH1 0x0 NOT SWAP1 PUSH1 0x3 SHL SHR NOT AND OR PUSH1 0x1 DUP6 ADD SSTORE JUMPDEST PUSH1 0x2 DUP5 ADD PUSH1 0x1 DUP1 PUSH1 0xA0 SHL SUB PUSH1 0x40 DUP4 ADD MLOAD AND PUSH1 0x1 PUSH1 0x1 PUSH1 0x60 SHL SUB PUSH1 0xA0 SHL DUP3 SLOAD AND OR SWAP1 SSTORE PUSH1 0x60 DUP2 ADD MLOAD PUSH1 0x3 DUP6 ADD SSTORE PUSH1 0x80 DUP2 ADD MLOAD PUSH1 0x4 DUP6 ADD SSTORE PUSH1 0xA0 DUP2 ADD MLOAD PUSH1 0x5 DUP6 ADD SSTORE ADD MLOAD ISZERO ISZERO SWAP2 ADD SWAP1 PUSH1 0xFF DUP1 NOT DUP4 SLOAD AND SWAP2 ISZERO ISZERO AND OR SWAP1 SSTORE JUMP JUMPDEST PUSH1 0x1 PUSH1 0x1 PUSH1 0xA0 SHL SUB DUP2 AND PUSH1 0x0 SWAP1 DUP2 MSTORE PUSH1 0x5 PUSH1 0x20 MSTORE PUSH1 0x40 SWAP1 KECCAK256 DUP1 SLOAD PUSH1 0xFF NOT AND PUSH1 0x1 OR SWAP1 SSTORE PUSH1 0x8 SLOAD SWAP1 PUSH9 0x10000000000000000 DUP3 LT ISZERO PUSH2 0xD9A JUMPI PUSH32 0x37B3AAF4F807403887412A5994AA1832EFACE4A8C15501A3311BF21D3279EA3F SWAP5 PUSH2 0x12D7 DUP4 PUSH1 0x1 PUSH2 0x1333 SWAP6 ADD PUSH1 0x8 SSTORE PUSH2 0x1947 JUMP JUMPDEST DUP2 SLOAD PUSH1 0x1 PUSH1 0x1 PUSH1 0xA0 SHL SUB DUP6 DUP2 AND PUSH1 0x3 SWAP4 SWAP1 SWAP4 SHL SWAP3 DUP4 SHL SWAP3 SHL NOT AND OR SWAP1 SSTORE PUSH1 0x7 SLOAD PUSH2 0x1300 SWAP1 PUSH2 0x1B4A JUMP JUMPDEST PUSH1 0x7 SSTORE PUSH2 0x131A PUSH1 0x40 MLOAD SWAP6 DUP7 SWAP6 PUSH1 0x40 DUP8 MSTORE PUSH1 0x40 DUP8 ADD SWAP2 PUSH2 0x1B6F JUMP JUMPDEST DUP5 DUP2 SUB PUSH1 0x20 DUP7 ADD MSTORE PUSH1 0x1 PUSH1 0x1 PUSH1 0xA0 SHL SUB SWAP1 SWAP3 AND SWAP7 PUSH2 0x1B6F JUMP JUMPDEST SUB SWAP1 LOG2 STOP JUMPDEST ADD MLOAD SWAP1 POP DUP13 DUP1 PUSH2 0x11FB JUMP JUMPDEST SWAP1 PUSH1 0x1 DUP6 ADD PUSH1 0x0 MSTORE PUSH1 0x20 PUSH1 0x0 KECCAK256 SWAP2 PUSH1 0x0 JUMPDEST PUSH1 0x1F NOT DUP6 AND DUP2 LT PUSH2 0x13A4 JUMPI POP DUP4 PUSH1 0xC0 SWAP4 PUSH2 0x126A SWAP8 SWAP7 SWAP4 PUSH1 0x1 SWAP4 PUSH1 0x6 SWAP8 PUSH1 0x1F NOT DUP2 AND LT PUSH2 0x138B JUMPI JUMPDEST POP POP POP DUP2 SHL ADD PUSH1 0x1 DUP6 ADD SSTORE PUSH2 0x1213 JUMP JUMPDEST ADD MLOAD PUSH1 0x0 NOT PUSH1 0xF8 DUP5 PUSH1 0x3 SHL AND SHR NOT AND SWAP1 SSTORE DUP13 DUP1 DUP1 PUSH2 0x137B JUMP JUMPDEST SWAP2 SWAP3 PUSH1 0x20 PUSH1 0x1 DUP2 SWAP3 DUP7 DUP6 ADD MLOAD DUP2 SSTORE ADD SWAP5 ADD SWAP3 ADD PUSH2 0x1354 JUMP JUMPDEST PUSH1 0x1 DUP6 ADD PUSH1 0x0 MSTORE PUSH1 0x20 PUSH1 0x0 KECCAK256 PUSH1 0x1F DUP5 ADD PUSH1 0x5 SHR DUP2 ADD PUSH1 0x20 DUP6 LT PUSH2 0x13FC JUMPI JUMPDEST PUSH1 0x1F DUP4 ADD PUSH1 0x5 SHR DUP3 ADD DUP2 LT PUSH2 0x13F0 JUMPI POP POP PUSH2 0x11D7 JUMP JUMPDEST PUSH1 0x0 DUP2 SSTORE PUSH1 0x1 ADD PUSH2 0x13DA JUMP JUMPDEST POP DUP1 PUSH2 0x13DA JUMP JUMPDEST ADD MLOAD SWAP1 POP DUP10 DUP1 PUSH2 0x1196 JUMP JUMPDEST SWAP3 POP DUP5 PUSH1 0x0 MSTORE PUSH1 0x20 PUSH1 0x0 KECCAK256 SWAP1 PUSH1 0x0 SWAP4 JUMPDEST PUSH1 0x1F NOT DUP5 AND DUP6 LT PUSH2 0x145F JUMPI PUSH1 0x1 SWAP5 POP DUP4 PUSH1 0x1F NOT DUP2 AND LT PUSH2 0x1446 JUMPI JUMPDEST POP POP POP DUP2 SHL ADD DUP3 SSTORE PUSH2 0x11AB JUMP JUMPDEST ADD MLOAD PUSH1 0x0 NOT PUSH1 0xF8 DUP5 PUSH1 0x3 SHL AND SHR NOT AND SWAP1 SSTORE DUP10 DUP1 DUP1 PUSH2 0x1439 JUMP JUMPDEST DUP2 DUP2 ADD MLOAD DUP4 SSTORE PUSH1 0x20 SWAP5 DUP6 ADD SWAP5 PUSH1 0x1 SWAP1 SWAP4 ADD SWAP3 SWAP1 SWAP2 ADD SWAP1 PUSH2 0x141E JUMP JUMPDEST SWAP1 SWAP2 POP DUP5 PUSH1 0x0 MSTORE PUSH1 0x20 PUSH1 0x0 KECCAK256 PUSH1 0x1F DUP5 ADD PUSH1 0x5 SHR DUP2 ADD PUSH1 0x20 DUP6 LT PUSH2 0x14C3 JUMPI JUMPDEST SWAP1 DUP5 SWAP4 SWAP3 SWAP2 JUMPDEST PUSH1 0x1F DUP4 ADD PUSH1 0x5 SHR DUP3 ADD DUP2 LT PUSH2 0x14B4 JUMPI POP POP PUSH2 0x117F JUMP JUMPDEST PUSH1 0x0 DUP2 SSTORE DUP6 SWAP5 POP PUSH1 0x1 ADD PUSH2 0x149E JUMP JUMPDEST POP DUP1 PUSH2 0x1498 JUMP JUMPDEST PUSH1 0x40 MLOAD PUSH3 0x461BCD PUSH1 0xE5 SHL DUP2 MSTORE PUSH1 0x20 PUSH1 0x4 DUP3 ADD MSTORE PUSH1 0xE PUSH1 0x24 DUP3 ADD MSTORE PUSH14 0x125B9D985B1A59081DD85B1B195D PUSH1 0x92 SHL PUSH1 0x44 DUP3 ADD MSTORE PUSH1 0x64 SWAP1 REVERT JUMPDEST PUSH1 0x40 MLOAD PUSH3 0x461BCD PUSH1 0xE5 SHL DUP2 MSTORE PUSH1 0x20 PUSH1 0x4 DUP3 ADD MSTORE PUSH1 0x18 PUSH1 0x24 DUP3 ADD MSTORE PUSH32 0x4167656E7420616C726561647920726567697374657265640000000000000000 PUSH1 0x44 DUP3 ADD MSTORE PUSH1 0x64 SWAP1 REVERT JUMPDEST CALLVALUE PUSH2 0x219 JUMPI PUSH1 0x0 CALLDATASIZE PUSH1 0x3 NOT ADD SLT PUSH2 0x219 JUMPI PUSH2 0x155E PUSH2 0x1AD8 JUMP JUMPDEST PUSH1 0x0 DUP1 SLOAD PUSH1 0x1 PUSH1 0x1 PUSH1 0xA0 SHL SUB NOT DUP2 AND DUP3 SSTORE PUSH1 0x1 PUSH1 0x1 PUSH1 0xA0 SHL SUB AND PUSH32 0x8BE0079C531659141344CD1FD0A4F28419497F9722A3DAAFE3B4186F6B6457E0 DUP3 DUP1 LOG3 STOP JUMPDEST CALLVALUE PUSH2 0x219 JUMPI PUSH1 0x40 CALLDATASIZE PUSH1 0x3 NOT ADD SLT PUSH2 0x219 JUMPI PUSH2 0x15B7 PUSH2 0x18F1 JUMP JUMPDEST PUSH1 0x4 CALLDATALOAD PUSH1 0x0 MSTORE PUSH1 0x3 PUSH1 0x20 MSTORE PUSH1 0x40 PUSH1 0x0 KECCAK256 SWAP1 PUSH1 0x1 DUP1 PUSH1 0xA0 SHL SUB AND PUSH1 0x0 MSTORE PUSH1 0x20 MSTORE PUSH1 0x20 PUSH1 0x40 PUSH1 0x0 KECCAK256 SLOAD PUSH1 0x40 MLOAD SWAP1 DUP2 MSTORE RETURN JUMPDEST CALLVALUE PUSH2 0x219 JUMPI PUSH1 0x20 CALLDATASIZE PUSH1 0x3 NOT ADD SLT PUSH2 0x219 JUMPI PUSH1 0x4 CALLDATALOAD PUSH1 0x0 MSTORE PUSH1 0x2 PUSH1 0x20 MSTORE PUSH2 0x166E PUSH1 0x40 PUSH1 0x0 KECCAK256 PUSH2 0x1613 DUP2 PUSH2 0x19EF JUMP JUMPDEST SWAP1 PUSH2 0x1620 PUSH1 0x1 DUP3 ADD PUSH2 0x19EF JUMP JUMPDEST PUSH2 0x162C PUSH1 0x2 DUP4 ADD PUSH2 0x19EF JUMP JUMPDEST SWAP2 PUSH1 0x1 DUP1 PUSH1 0xA0 SHL SUB PUSH1 0x3 DUP3 ADD SLOAD AND SWAP3 PUSH1 0x4 DUP3 ADD SLOAD PUSH2 0x168A PUSH1 0x5 DUP5 ADD SLOAD SWAP3 PUSH2 0x167C PUSH1 0xFF PUSH1 0x7 PUSH1 0x6 DUP9 ADD SLOAD SWAP8 ADD SLOAD AND SWAP7 PUSH1 0x40 MLOAD SWAP11 DUP12 SWAP11 PUSH2 0x100 DUP1 DUP14 MSTORE DUP13 ADD SWAP1 PUSH2 0x1907 JUMP JUMPDEST SWAP1 DUP11 DUP3 SUB PUSH1 0x20 DUP13 ADD MSTORE PUSH2 0x1907 JUMP JUMPDEST SWAP1 DUP9 DUP3 SUB PUSH1 0x40 DUP11 ADD MSTORE PUSH2 0x1907 JUMP JUMPDEST SWAP5 PUSH1 0x60 DUP8 ADD MSTORE PUSH1 0x80 DUP7 ADD MSTORE PUSH1 0xA0 DUP6 ADD MSTORE PUSH1 0xC0 DUP5 ADD MSTORE ISZERO ISZERO PUSH1 0xE0 DUP4 ADD MSTORE SUB SWAP1 RETURN JUMPDEST CALLVALUE PUSH2 0x219 JUMPI PUSH1 0x20 CALLDATASIZE PUSH1 0x3 NOT ADD SLT PUSH2 0x219 JUMPI PUSH2 0x16C3 PUSH2 0x18DB JUMP JUMPDEST PUSH2 0x16CB PUSH2 0x1AD8 JUMP JUMPDEST PUSH1 0x1 PUSH1 0x1 PUSH1 0xA0 SHL SUB AND PUSH1 0x0 DUP2 DUP2 MSTORE PUSH1 0x5 PUSH1 0x20 MSTORE PUSH1 0x40 SWAP1 KECCAK256 SLOAD PUSH2 0x16EF SWAP1 PUSH1 0xFF AND PUSH2 0x1B90 JUMP JUMPDEST PUSH1 0x0 SWAP1 DUP2 MSTORE PUSH1 0x4 PUSH1 0x20 MSTORE PUSH1 0x40 SWAP1 KECCAK256 PUSH1 0x6 ADD DUP1 SLOAD PUSH1 0xFF NOT AND PUSH1 0x1 OR SWAP1 SSTORE STOP JUMPDEST CALLVALUE PUSH2 0x219 JUMPI PUSH1 0x0 CALLDATASIZE PUSH1 0x3 NOT ADD SLT PUSH2 0x219 JUMPI PUSH2 0x1726 PUSH2 0x1AD8 JUMP JUMPDEST PUSH1 0x0 DUP1 SLOAD DUP2 SWAP1 DUP2 SWAP1 DUP2 SWAP1 SELFBALANCE SWAP1 PUSH1 0x1 PUSH1 0x1 PUSH1 0xA0 SHL SUB AND DUP3 DUP3 ISZERO PUSH2 0x174B JUMPI JUMPDEST CALL ISZERO PUSH2 0x591 JUMPI STOP JUMPDEST POP PUSH2 0x8FC PUSH2 0x1743 JUMP JUMPDEST CALLVALUE PUSH2 0x219 JUMPI PUSH1 0x0 CALLDATASIZE PUSH1 0x3 NOT ADD SLT PUSH2 0x219 JUMPI PUSH1 0x20 PUSH1 0x40 MLOAD PUSH10 0xD3C21BCECCEDA1000000 DUP2 MSTORE RETURN JUMPDEST CALLVALUE PUSH2 0x219 JUMPI PUSH1 0x20 CALLDATASIZE PUSH1 0x3 NOT ADD SLT PUSH2 0x219 JUMPI PUSH1 0x4 CALLDATALOAD PUSH1 0x8 SLOAD DUP2 LT ISZERO PUSH2 0x219 JUMPI PUSH2 0x17A2 PUSH1 0x20 SWAP2 PUSH2 0x1947 JUMP JUMPDEST SWAP1 SLOAD PUSH1 0x40 MLOAD PUSH1 0x3 SWAP3 SWAP1 SWAP3 SHL SHR PUSH1 0x1 PUSH1 0x1 PUSH1 0xA0 SHL SUB AND DUP2 MSTORE RETURN JUMPDEST CALLVALUE PUSH2 0x219 JUMPI PUSH1 0x0 CALLDATASIZE PUSH1 0x3 NOT ADD SLT PUSH2 0x219 JUMPI PUSH1 0x20 PUSH1 0x40 MLOAD PUSH9 0x3BD913E6C1DF40000 DUP2 MSTORE RETURN JUMPDEST CALLVALUE PUSH2 0x219 JUMPI PUSH1 0x20 CALLDATASIZE PUSH1 0x3 NOT ADD SLT PUSH2 0x219 JUMPI PUSH1 0x20 PUSH2 0x2E6 PUSH1 0x4 CALLDATALOAD PUSH2 0x1D08 JUMP JUMPDEST CALLVALUE PUSH2 0x219 JUMPI PUSH1 0x20 CALLDATASIZE PUSH1 0x3 NOT ADD SLT PUSH2 0x219 JUMPI PUSH1 0x1 PUSH1 0x1 PUSH1 0xA0 SHL SUB PUSH2 0x181E PUSH2 0x18DB JUMP JUMPDEST AND PUSH1 0x0 MSTORE PUSH1 0x5 PUSH1 0x20 MSTORE PUSH1 0x20 PUSH1 0xFF PUSH1 0x40 PUSH1 0x0 KECCAK256 SLOAD AND PUSH1 0x40 MLOAD SWAP1 ISZERO ISZERO DUP2 MSTORE RETURN JUMPDEST CALLVALUE PUSH2 0x219 JUMPI PUSH1 0x20 CALLDATASIZE PUSH1 0x3 NOT ADD SLT PUSH2 0x219 JUMPI PUSH1 0x1 PUSH1 0x1 PUSH1 0xA0 SHL SUB PUSH2 0x185D PUSH2 0x18DB JUMP JUMPDEST AND PUSH1 0x0 MSTORE PUSH1 0x4 PUSH1 0x20 MSTORE PUSH2 0x18B2 PUSH1 0x40 PUSH1 0x0 KECCAK256 PUSH1 0x3 DUP2 ADD SLOAD PUSH1 0x4 DUP3 ADD SLOAD PUSH1 0x5 DUP4 ADD SLOAD PUSH1 0xFF PUSH1 0x6 DUP6 ADD SLOAD AND SWAP2 PUSH2 0x18C0 PUSH2 0x189E PUSH1 0x1 PUSH2 0x1897 DUP9 PUSH2 0x19EF JUMP JUMPDEST SWAP8 ADD PUSH2 0x19EF JUMP JUMPDEST PUSH1 0x40 MLOAD SWAP8 DUP9 SWAP8 PUSH1 0xC0 DUP10 MSTORE PUSH1 0xC0 DUP10 ADD SWAP1 PUSH2 0x1907 JUMP JUMPDEST SWAP1 DUP8 DUP3 SUB PUSH1 0x20 DUP10 ADD MSTORE PUSH2 0x1907 JUMP JUMPDEST SWAP4 PUSH1 0x40 DUP7 ADD MSTORE PUSH1 0x60 DUP6 ADD MSTORE PUSH1 0x80 DUP5 ADD MSTORE ISZERO ISZERO PUSH1 0xA0 DUP4 ADD MSTORE SUB SWAP1 RETURN JUMPDEST PUSH1 0x4 CALLDATALOAD SWAP1 PUSH1 0x1 PUSH1 0x1 PUSH1 0xA0 SHL SUB DUP3 AND DUP3 SUB PUSH2 0x219 JUMPI JUMP JUMPDEST PUSH1 0x24 CALLDATALOAD SWAP1 PUSH1 0x1 PUSH1 0x1 PUSH1 0xA0 SHL SUB DUP3 AND DUP3 SUB PUSH2 0x219 JUMPI JUMP JUMPDEST SWAP2 SWAP1 DUP3 MLOAD SWAP3 DUP4 DUP3 MSTORE PUSH1 0x0 JUMPDEST DUP5 DUP2 LT PUSH2 0x1933 JUMPI POP POP DUP3 PUSH1 0x0 PUSH1 0x20 DUP1 SWAP5 SWAP6 DUP5 ADD ADD MSTORE PUSH1 0x1F DUP1 NOT SWAP2 ADD AND ADD ADD SWAP1 JUMP JUMPDEST PUSH1 0x20 DUP2 DUP4 ADD DUP2 ADD MLOAD DUP5 DUP4 ADD DUP3 ADD MSTORE ADD PUSH2 0x1912 JUMP JUMPDEST PUSH1 0x8 SLOAD DUP2 LT ISZERO PUSH2 0x197E JUMPI PUSH1 0x8 PUSH1 0x0 MSTORE PUSH32 0xF3F7A9FE364FAAB93B216DA50A3214154F22A0A2B415B23A84C8169E8B636EE3 ADD SWAP1 PUSH1 0x0 SWAP1 JUMP JUMPDEST PUSH4 0x4E487B71 PUSH1 0xE0 SHL PUSH1 0x0 MSTORE PUSH1 0x32 PUSH1 0x4 MSTORE PUSH1 0x24 PUSH1 0x0 REVERT JUMPDEST SWAP1 PUSH1 0x1 DUP3 DUP2 SHR SWAP3 AND DUP1 ISZERO PUSH2 0x19C4 JUMPI JUMPDEST PUSH1 0x20 DUP4 LT EQ PUSH2 0x19AE JUMPI JUMP JUMPDEST PUSH4 0x4E487B71 PUSH1 0xE0 SHL PUSH1 0x0 MSTORE PUSH1 0x22 PUSH1 0x4 MSTORE PUSH1 0x24 PUSH1 0x0 REVERT JUMPDEST SWAP2 PUSH1 0x7F AND SWAP2 PUSH2 0x19A3 JUMP JUMPDEST SWAP1 PUSH1 0x1F DUP1 NOT SWAP2 ADD AND DUP2 ADD SWAP1 DUP2 LT PUSH1 0x1 PUSH1 0x1 PUSH1 0x40 SHL SUB DUP3 GT OR PUSH2 0xD9A JUMPI PUSH1 0x40 MSTORE JUMP JUMPDEST SWAP1 PUSH1 0x40 MLOAD SWAP2 DUP3 PUSH1 0x0 DUP3 SLOAD SWAP3 PUSH2 0x1A03 DUP5 PUSH2 0x1994 JUMP JUMPDEST SWAP1 DUP2 DUP5 MSTORE PUSH1 0x1 SWAP5 DUP6 DUP2 AND SWAP1 DUP2 PUSH1 0x0 EQ PUSH2 0x1A72 JUMPI POP PUSH1 0x1 EQ PUSH2 0x1A2F JUMPI JUMPDEST POP POP PUSH2 0x1A2D SWAP3 POP SUB DUP4 PUSH2 0x19CE JUMP JUMPDEST JUMP JUMPDEST SWAP1 SWAP4 SWAP2 POP PUSH1 0x0 MSTORE PUSH1 0x20 SWAP1 DUP2 PUSH1 0x0 KECCAK256 SWAP4 PUSH1 0x0 SWAP2 JUMPDEST DUP2 DUP4 LT PUSH2 0x1A5A JUMPI POP POP PUSH2 0x1A2D SWAP4 POP DUP3 ADD ADD CODESIZE DUP1 PUSH2 0x1A1F JUMP JUMPDEST DUP6 SLOAD DUP9 DUP5 ADD DUP6 ADD MSTORE SWAP5 DUP6 ADD SWAP5 DUP8 SWAP5 POP SWAP2 DUP4 ADD SWAP2 PUSH2 0x1A42 JUMP JUMPDEST SWAP2 POP POP PUSH2 0x1A2D SWAP5 POP PUSH1 0x20 SWAP3 POP PUSH1 0xFF NOT AND DUP3 DUP5 ADD MSTORE ISZERO ISZERO PUSH1 0x5 SHL DUP3 ADD ADD CODESIZE DUP1 PUSH2 0x1A1F JUMP JUMPDEST SWAP2 DUP2 PUSH1 0x1F DUP5 ADD SLT ISZERO PUSH2 0x219 JUMPI DUP3 CALLDATALOAD SWAP2 PUSH1 0x1 PUSH1 0x1 PUSH1 0x40 SHL SUB DUP4 GT PUSH2 0x219 JUMPI PUSH1 0x20 DUP4 DUP2 DUP7 ADD SWAP6 ADD ADD GT PUSH2 0x219 JUMPI JUMP JUMPDEST PUSH1 0x40 SWAP1 PUSH1 0x3 NOT ADD SLT PUSH2 0x219 JUMPI PUSH1 0x4 CALLDATALOAD SWAP1 PUSH1 0x24 CALLDATALOAD SWAP1 JUMP JUMPDEST PUSH1 0x0 SLOAD PUSH1 0x1 PUSH1 0x1 PUSH1 0xA0 SHL SUB AND CALLER SUB PUSH2 0x1AEC JUMPI JUMP JUMPDEST PUSH1 0x40 MLOAD PUSH4 0x118CDAA7 PUSH1 0xE0 SHL DUP2 MSTORE CALLER PUSH1 0x4 DUP3 ADD MSTORE PUSH1 0x24 SWAP1 REVERT JUMPDEST SWAP3 SWAP2 SWAP3 PUSH1 0x1 PUSH1 0x1 PUSH1 0x40 SHL SUB DUP3 GT PUSH2 0xD9A JUMPI PUSH1 0x40 MLOAD SWAP2 PUSH2 0x1B2D PUSH1 0x1F DUP3 ADD PUSH1 0x1F NOT AND PUSH1 0x20 ADD DUP5 PUSH2 0x19CE JUMP JUMPDEST DUP3 SWAP5 DUP2 DUP5 MSTORE DUP2 DUP4 ADD GT PUSH2 0x219 JUMPI DUP3 DUP2 PUSH1 0x20 SWAP4 DUP5 PUSH1 0x0 SWAP7 ADD CALLDATACOPY ADD ADD MSTORE JUMP JUMPDEST PUSH1 0x0 NOT DUP2 EQ PUSH2 0x1B59 JUMPI PUSH1 0x1 ADD SWAP1 JUMP JUMPDEST PUSH4 0x4E487B71 PUSH1 0xE0 SHL PUSH1 0x0 MSTORE PUSH1 0x11 PUSH1 0x4 MSTORE PUSH1 0x24 PUSH1 0x0 REVERT JUMPDEST SWAP1 DUP1 PUSH1 0x20 SWAP4 SWAP3 DUP2 DUP5 MSTORE DUP5 DUP5 ADD CALLDATACOPY PUSH1 0x0 DUP3 DUP3 ADD DUP5 ADD MSTORE PUSH1 0x1F ADD PUSH1 0x1F NOT AND ADD ADD SWAP1 JUMP JUMPDEST ISZERO PUSH2 0x1B97 JUMPI JUMP JUMPDEST PUSH1 0x40 MLOAD PUSH3 0x461BCD PUSH1 0xE5 SHL DUP2 MSTORE PUSH1 0x20 PUSH1 0x4 DUP3 ADD MSTORE PUSH1 0xC PUSH1 0x24 DUP3 ADD MSTORE PUSH12 0x139BDD08185B881859D95B9D PUSH1 0xA2 SHL PUSH1 0x44 DUP3 ADD MSTORE PUSH1 0x64 SWAP1 REVERT JUMPDEST ISZERO PUSH2 0x1BD2 JUMPI JUMP JUMPDEST PUSH1 0x64 PUSH1 0x40 MLOAD PUSH3 0x461BCD PUSH1 0xE5 SHL DUP2 MSTORE PUSH1 0x20 PUSH1 0x4 DUP3 ADD MSTORE PUSH1 0x20 PUSH1 0x24 DUP3 ADD MSTORE PUSH32 0x4F6E6C792072656769737465726564206167656E74732063616E207472616465 PUSH1 0x44 DUP3 ADD MSTORE REVERT JUMPDEST ISZERO PUSH2 0x1C1D JUMPI JUMP JUMPDEST PUSH1 0x40 MLOAD PUSH3 0x461BCD PUSH1 0xE5 SHL DUP2 MSTORE PUSH1 0x20 PUSH1 0x4 DUP3 ADD MSTORE PUSH1 0x13 PUSH1 0x24 DUP3 ADD MSTORE PUSH19 0x4167656E74206973206E6F7420616374697665 PUSH1 0x68 SHL PUSH1 0x44 DUP3 ADD MSTORE PUSH1 0x64 SWAP1 REVERT JUMPDEST DUP2 DUP2 MUL SWAP3 SWAP2 DUP2 ISZERO SWAP2 DUP5 DIV EQ OR ISZERO PUSH2 0x1B59 JUMPI JUMP JUMPDEST DUP2 ISZERO PUSH2 0x1C75 JUMPI DIV SWAP1 JUMP JUMPDEST PUSH4 0x4E487B71 PUSH1 0xE0 SHL PUSH1 0x0 MSTORE PUSH1 0x12 PUSH1 0x4 MSTORE PUSH1 0x24 PUSH1 0x0 REVERT JUMPDEST PUSH1 0x0 SWAP1 DUP2 MSTORE PUSH1 0x2 PUSH1 0x20 MSTORE PUSH1 0x40 DUP2 KECCAK256 PUSH1 0x5 DUP2 ADD SLOAD SWAP1 DUP2 ISZERO PUSH2 0x1CFB JUMPI PUSH1 0x6 ADD SLOAD SWAP2 PUSH8 0xDE0B6B3A7640000 SWAP3 DUP4 DUP2 MUL SWAP4 DUP2 DUP6 DIV EQ SWAP1 ISZERO OR ISZERO PUSH2 0x1CE7 JUMPI PUSH3 0x7A120 DUP1 DUP4 MUL SWAP3 DUP4 DIV SUB PUSH2 0x1CE7 JUMPI POP SWAP1 PUSH3 0xF4240 PUSH2 0x1CE4 SWAP3 DIV SWAP1 PUSH2 0x1C6B JUMP JUMPDEST SWAP1 JUMP JUMPDEST PUSH4 0x4E487B71 PUSH1 0xE0 SHL DUP2 MSTORE PUSH1 0x11 PUSH1 0x4 MSTORE PUSH1 0x24 SWAP1 REVERT JUMPDEST POP POP POP PUSH6 0x5AF3107A4000 SWAP1 JUMP JUMPDEST PUSH2 0x1D36 PUSH8 0xDE0B6B3A7640000 SWAP2 DUP1 PUSH1 0x0 MSTORE PUSH1 0x2 PUSH1 0x20 MSTORE PUSH2 0x1D30 PUSH1 0x5 PUSH1 0x40 PUSH1 0x0 KECCAK256 ADD SLOAD SWAP2 PUSH2 0x1C8B JUMP JUMPDEST SWAP1 PUSH2 0x1C58 JUMP JUMPDEST DIV SWAP1 JUMP JUMPDEST SWAP2 SWAP1 DUP3 ADD DUP1 SWAP3 GT PUSH2 0x1B59 JUMPI JUMP JUMPDEST SWAP1 PUSH1 0x0 DUP3 DUP2 MSTORE PUSH1 0x2 PUSH1 0x20 MSTORE PUSH2 0x1D5F PUSH1 0x40 DUP3 KECCAK256 SWAP4 PUSH2 0x1C8B JUMP JUMPDEST PUSH8 0xDE0B6B3A7640000 SWAP4 DUP5 DUP5 MUL SWAP1 DUP5 DUP3 DIV DUP7 EQ DUP6 ISZERO OR ISZERO PUSH2 0x1DCB JUMPI PUSH1 0x5 ADD SLOAD PUSH1 0x1 PUSH1 0x1 PUSH1 0xFF SHL SUB DUP2 AND DUP2 SUB PUSH2 0x1DCB JUMPI PUSH2 0x1DA6 SWAP3 SWAP2 PUSH2 0x1DA0 SWAP2 PUSH1 0x1 SHL SWAP1 PUSH2 0x1C6B JUMP JUMPDEST SWAP4 PUSH2 0x1C58 JUMP JUMPDEST SWAP2 DUP4 ADD DUP1 SWAP4 GT PUSH2 0x1CE7 JUMPI POP PUSH15 0xC097CE7BC90715B34B9F1000000000 SWAP2 PUSH2 0x1D36 SWAP2 PUSH2 0x1C58 JUMP JUMPDEST PUSH4 0x4E487B71 PUSH1 0xE0 SHL DUP5 MSTORE PUSH1 0x11 PUSH1 0x4 MSTORE PUSH1 0x24 DUP5 REVERT JUMPDEST SWAP2 SWAP1 DUP3 SUB SWAP2 DUP3 GT PUSH2 0x1B59 JUMPI JUMP JUMPDEST SWAP1 PUSH1 0x0 DUP3 DUP2 MSTORE PUSH1 0x2 PUSH1 0x20 MSTORE PUSH2 0x1E04 PUSH1 0x40 DUP3 KECCAK256 SWAP4 PUSH2 0x1C8B JUMP JUMPDEST PUSH8 0xDE0B6B3A7640000 SWAP4 DUP5 DUP5 MUL SWAP1 DUP5 DUP3 DIV DUP7 EQ DUP6 ISZERO OR ISZERO PUSH2 0x1DCB JUMPI PUSH1 0x5 ADD SLOAD PUSH1 0x1 PUSH1 0x1 PUSH1 0xFF SHL SUB DUP2 AND DUP2 SUB PUSH2 0x1DCB JUMPI PUSH2 0x1E45 SWAP3 SWAP2 PUSH2 0x1DA0 SWAP2 PUSH1 0x1 SHL SWAP1 PUSH2 0x1C6B JUMP JUMPDEST SWAP2 DUP4 SUB SWAP3 DUP4 GT PUSH2 0x1CE7 JUMPI POP PUSH15 0xC097CE7BC90715B34B9F1000000000 SWAP2 PUSH2 0x1D36 SWAP2 PUSH2 0x1C58 JUMP JUMPDEST ISZERO PUSH2 0x1E71 JUMPI JUMP JUMPDEST PUSH1 0x40 MLOAD PUSH3 0x461BCD PUSH1 0xE5 SHL DUP2 MSTORE PUSH1 0x20 PUSH1 0x4 DUP3 ADD MSTORE PUSH1 0x14 PUSH1 0x24 DUP3 ADD MSTORE PUSH20 0x151BDAD95B88191BD95CC81B9BDD08195E1A5CDD PUSH1 0x62 SHL PUSH1 0x44 DUP3 ADD MSTORE PUSH1 0x64 SWAP1 REVERT JUMPDEST ISZERO PUSH2 0x1EB4 JUMPI JUMP JUMPDEST PUSH1 0x40 MLOAD PUSH3 0x461BCD PUSH1 0xE5 SHL DUP2 MSTORE PUSH1 0x20 PUSH1 0x4 DUP3 ADD MSTORE PUSH1 0x13 PUSH1 0x24 DUP3 ADD MSTORE PUSH19 0x151BDAD95B881A185CC819DC98591D585D1959 PUSH1 0x6A SHL PUSH1 0x44 DUP3 ADD MSTORE PUSH1 0x64 SWAP1 REVERT JUMPDEST ISZERO PUSH2 0x1EF6 JUMPI JUMP JUMPDEST PUSH1 0x40 MLOAD PUSH3 0x461BCD PUSH1 0xE5 SHL DUP2 MSTORE PUSH1 0x20 PUSH1 0x4 DUP3 ADD MSTORE PUSH1 0x12 PUSH1 0x24 DUP3 ADD MSTORE PUSH18 0x416D6F756E74206D757374206265203E203 PUSH1 0x74 SHL PUSH1 0x44 DUP3 ADD MSTORE PUSH1 0x64 SWAP1 REVERT JUMPDEST PUSH1 0x2 PUSH1 0x1 SLOAD EQ PUSH2 0x1F41 JUMPI PUSH1 0x2 PUSH1 0x1 SSTORE JUMP JUMPDEST PUSH1 0x40 MLOAD PUSH4 0x3EE5AEB5 PUSH1 0xE0 SHL DUP2 MSTORE PUSH1 0x4 SWAP1 REVERT INVALID LOG2 PUSH5 0x6970667358 0x22 SLT KECCAK256 ADD PUSH14 0xBFBB62B842012EFD0FBE2492D17D PUSH13 0x27F0459D645CA551CDAAB9908 0xE6 TIMESTAMP PUSH5 0x736F6C6343 STOP ADDMOD EQ STOP CALLER "},"methodIdentifiers":{"BASE_PRICE()":"f86325ed","GRADUATION_MC()":"2f4e9a69","INITIAL_SUPPLY()":"2ff2e9dc","PRECISION()":"aaf5eb68","RESERVE_RATIO()":"e37dbfd9","activateAgent(address)":"4e81ba8e","agentCount()":"b7dc1284","agentList(uint256)":"2f80c54f","agents(address)":"fd66091e","balances(uint256,address)":"1f320331","buy(uint256,uint256)":"d6febde8","createToken(string,string,string)":"94aed7d0","deactivateAgent(address)":"b0a0a927","getAgentBalance(uint256,address)":"667ffae4","getAgentInfo(address)":"152052b0","getAllAgents()":"860e4ac6","getBuyPrice(uint256,uint256)":"c157253d","getMarketCap(uint256)":"283c9c31","getPrice(uint256)":"e7572230","getSellPrice(uint256,uint256)":"9477d85d","getToken(uint256)":"e4b50cb8","isAgent(address)":"1ffbb064","owner()":"8da5cb5b","registerAgent(address,string,string)":"7216fe48","renounceOwnership()":"715018a6","sell(uint256,uint256)":"d79875eb","tokenCount()":"9f181b5e","tokens(uint256)":"4f64b2be","transferOwnership(address)":"f2fde38b","withdraw()":"3ccfd60b"}}}}}